{
  "_format": "hh-sol-artifact-1",
  "contractName": "DoubleDiceProtocol",
  "sourceName": "contracts/DoubleDiceProtocol.sol",
  "abi": [
    {
      "inputs": [],
      "stateMutability": "nonpayable",
      "type": "constructor"
    },
    {
      "inputs": [],
      "name": "CommitmentAmountOutOfRange",
      "type": "error"
    },
    {
      "inputs": [
        {
          "internalType": "uint256",
          "name": "id",
          "type": "uint256"
        },
        {
          "internalType": "enum VirtualFloorState",
          "name": "state",
          "type": "uint8"
        }
      ],
      "name": "CommitmentBalanceTransferRejection",
      "type": "error"
    },
    {
      "inputs": [],
      "name": "CommitmentBalanceTransferWhilePaused",
      "type": "error"
    },
    {
      "inputs": [],
      "name": "CommitmentDeadlineExpired",
      "type": "error"
    },
    {
      "inputs": [],
      "name": "CommitmentMisMatch",
      "type": "error"
    },
    {
      "inputs": [],
      "name": "CreationFeeRateTooLarge",
      "type": "error"
    },
    {
      "inputs": [],
      "name": "DuplicateVirtualFloorId",
      "type": "error"
    },
    {
      "inputs": [],
      "name": "InvalidMinMaxCommitmentAmounts",
      "type": "error"
    },
    {
      "inputs": [],
      "name": "InvalidTimeline",
      "type": "error"
    },
    {
      "inputs": [],
      "name": "InvalidVirtualFloorId",
      "type": "error"
    },
    {
      "inputs": [
        {
          "internalType": "uint256",
          "name": "tokenId",
          "type": "uint256"
        }
      ],
      "name": "MismatchedVirtualFloorId",
      "type": "error"
    },
    {
      "inputs": [],
      "name": "NotEnoughOutcomes",
      "type": "error"
    },
    {
      "inputs": [],
      "name": "OutcomeIndexOutOfRange",
      "type": "error"
    },
    {
      "inputs": [],
      "name": "PaymentTokenNotWhitelisted",
      "type": "error"
    },
    {
      "inputs": [],
      "name": "PlatformFeeRateTooLarge",
      "type": "error"
    },
    {
      "inputs": [],
      "name": "ResolveWhilePaused",
      "type": "error"
    },
    {
      "inputs": [
        {
          "internalType": "uint256",
          "name": "value",
          "type": "uint256"
        }
      ],
      "name": "TooLargeForUint192",
      "type": "error"
    },
    {
      "inputs": [],
      "name": "TooLate",
      "type": "error"
    },
    {
      "inputs": [],
      "name": "TooManyOutcomes",
      "type": "error"
    },
    {
      "inputs": [],
      "name": "TooManyWinningOutcomes",
      "type": "error"
    },
    {
      "inputs": [
        {
          "internalType": "UFixed256x18",
          "name": "value",
          "type": "uint256"
        }
      ],
      "name": "UFixed16x4LossOfPrecision",
      "type": "error"
    },
    {
      "inputs": [
        {
          "internalType": "UFixed256x18",
          "name": "value",
          "type": "uint256"
        }
      ],
      "name": "UFixed32x6LossOfPrecision",
      "type": "error"
    },
    {
      "inputs": [],
      "name": "UnauthorizedMsgSender",
      "type": "error"
    },
    {
      "inputs": [],
      "name": "UnsupportedLegacyVf",
      "type": "error"
    },
    {
      "inputs": [
        {
          "internalType": "enum VirtualFloorState",
          "name": "actualState",
          "type": "uint8"
        }
      ],
      "name": "WrongVirtualFloorState",
      "type": "error"
    },
    {
      "anonymous": false,
      "inputs": [
        {
          "indexed": true,
          "internalType": "address",
          "name": "account",
          "type": "address"
        },
        {
          "indexed": true,
          "internalType": "address",
          "name": "operator",
          "type": "address"
        },
        {
          "indexed": false,
          "internalType": "bool",
          "name": "approved",
          "type": "bool"
        }
      ],
      "name": "ApprovalForAll",
      "type": "event"
    },
    {
      "anonymous": false,
      "inputs": [
        {
          "indexed": false,
          "internalType": "string",
          "name": "contractURI",
          "type": "string"
        }
      ],
      "name": "ContractURIUpdate",
      "type": "event"
    },
    {
      "anonymous": false,
      "inputs": [
        {
          "indexed": true,
          "internalType": "address",
          "name": "previousOwner",
          "type": "address"
        },
        {
          "indexed": true,
          "internalType": "address",
          "name": "newOwner",
          "type": "address"
        }
      ],
      "name": "OwnershipTransferred",
      "type": "event"
    },
    {
      "anonymous": false,
      "inputs": [
        {
          "indexed": false,
          "internalType": "address",
          "name": "account",
          "type": "address"
        }
      ],
      "name": "Paused",
      "type": "event"
    },
    {
      "anonymous": false,
      "inputs": [
        {
          "indexed": true,
          "internalType": "contract IERC20Upgradeable",
          "name": "token",
          "type": "address"
        },
        {
          "indexed": false,
          "internalType": "bool",
          "name": "whitelisted",
          "type": "bool"
        }
      ],
      "name": "PaymentTokenWhitelistUpdate",
      "type": "event"
    },
    {
      "anonymous": false,
      "inputs": [
        {
          "indexed": false,
          "internalType": "address",
          "name": "protocolFeeBeneficiary",
          "type": "address"
        }
      ],
      "name": "PlatformFeeBeneficiaryUpdate",
      "type": "event"
    },
    {
      "anonymous": false,
      "inputs": [
        {
          "indexed": false,
          "internalType": "UFixed256x18",
          "name": "protocolFeeRate_e18",
          "type": "uint256"
        }
      ],
      "name": "PlatformFeeRateUpdate",
      "type": "event"
    },
    {
      "anonymous": false,
      "inputs": [
        {
          "indexed": true,
          "internalType": "bytes32",
          "name": "role",
          "type": "bytes32"
        },
        {
          "indexed": true,
          "internalType": "bytes32",
          "name": "previousAdminRole",
          "type": "bytes32"
        },
        {
          "indexed": true,
          "internalType": "bytes32",
          "name": "newAdminRole",
          "type": "bytes32"
        }
      ],
      "name": "RoleAdminChanged",
      "type": "event"
    },
    {
      "anonymous": false,
      "inputs": [
        {
          "indexed": true,
          "internalType": "bytes32",
          "name": "role",
          "type": "bytes32"
        },
        {
          "indexed": true,
          "internalType": "address",
          "name": "account",
          "type": "address"
        },
        {
          "indexed": true,
          "internalType": "address",
          "name": "sender",
          "type": "address"
        }
      ],
      "name": "RoleGranted",
      "type": "event"
    },
    {
      "anonymous": false,
      "inputs": [
        {
          "indexed": true,
          "internalType": "bytes32",
          "name": "role",
          "type": "bytes32"
        },
        {
          "indexed": true,
          "internalType": "address",
          "name": "account",
          "type": "address"
        },
        {
          "indexed": true,
          "internalType": "address",
          "name": "sender",
          "type": "address"
        }
      ],
      "name": "RoleRevoked",
      "type": "event"
    },
    {
      "anonymous": false,
      "inputs": [
        {
          "indexed": true,
          "internalType": "address",
          "name": "operator",
          "type": "address"
        },
        {
          "indexed": true,
          "internalType": "address",
          "name": "from",
          "type": "address"
        },
        {
          "indexed": true,
          "internalType": "address",
          "name": "to",
          "type": "address"
        },
        {
          "indexed": false,
          "internalType": "uint256[]",
          "name": "ids",
          "type": "uint256[]"
        },
        {
          "indexed": false,
          "internalType": "uint256[]",
          "name": "values",
          "type": "uint256[]"
        }
      ],
      "name": "TransferBatch",
      "type": "event"
    },
    {
      "anonymous": false,
      "inputs": [
        {
          "indexed": true,
          "internalType": "address",
          "name": "operator",
          "type": "address"
        },
        {
          "indexed": true,
          "internalType": "address",
          "name": "from",
          "type": "address"
        },
        {
          "indexed": true,
          "internalType": "address",
          "name": "to",
          "type": "address"
        },
        {
          "indexed": false,
          "internalType": "uint256",
          "name": "id",
          "type": "uint256"
        },
        {
          "indexed": false,
          "internalType": "uint256",
          "name": "value",
          "type": "uint256"
        }
      ],
      "name": "TransferSingle",
      "type": "event"
    },
    {
      "anonymous": false,
      "inputs": [
        {
          "indexed": false,
          "internalType": "string",
          "name": "value",
          "type": "string"
        },
        {
          "indexed": true,
          "internalType": "uint256",
          "name": "id",
          "type": "uint256"
        }
      ],
      "name": "URI",
      "type": "event"
    },
    {
      "anonymous": false,
      "inputs": [
        {
          "indexed": false,
          "internalType": "address",
          "name": "account",
          "type": "address"
        }
      ],
      "name": "Unpaused",
      "type": "event"
    },
    {
      "anonymous": false,
      "inputs": [
        {
          "indexed": true,
          "internalType": "uint256",
          "name": "vfId",
          "type": "uint256"
        },
        {
          "indexed": true,
          "internalType": "address",
          "name": "committer",
          "type": "address"
        },
        {
          "indexed": false,
          "internalType": "uint8[]",
          "name": "outcomeIndexes",
          "type": "uint8[]"
        },
        {
          "indexed": false,
          "internalType": "uint256[]",
          "name": "amounts",
          "type": "uint256[]"
        },
        {
          "indexed": false,
          "internalType": "UFixed256x18[]",
          "name": "beta_e18",
          "type": "uint256[]"
        },
        {
          "indexed": false,
          "internalType": "uint256[]",
          "name": "tokenIds",
          "type": "uint256[]"
        }
      ],
      "name": "UserCommitment",
      "type": "event"
    },
    {
      "anonymous": false,
      "inputs": [
        {
          "indexed": true,
          "internalType": "uint256",
          "name": "vfId",
          "type": "uint256"
        },
        {
          "indexed": false,
          "internalType": "string",
          "name": "reason",
          "type": "string"
        }
      ],
      "name": "VirtualFloorCancellationFlagged",
      "type": "event"
    },
    {
      "anonymous": false,
      "inputs": [
        {
          "indexed": true,
          "internalType": "uint256",
          "name": "vfId",
          "type": "uint256"
        }
      ],
      "name": "VirtualFloorCancellationUnresolvable",
      "type": "event"
    },
    {
      "anonymous": false,
      "inputs": [
        {
          "indexed": true,
          "internalType": "uint256",
          "name": "vfId",
          "type": "uint256"
        },
        {
          "indexed": true,
          "internalType": "address",
          "name": "creator",
          "type": "address"
        },
        {
          "indexed": false,
          "internalType": "UFixed256x18",
          "name": "betaOpen_e18",
          "type": "uint256"
        },
        {
          "indexed": false,
          "internalType": "UFixed256x18",
          "name": "totalFeeRate_e18",
          "type": "uint256"
        },
        {
          "indexed": false,
          "internalType": "UFixed256x18",
          "name": "protocolFeeRate_e18",
          "type": "uint256"
        },
        {
          "indexed": false,
          "internalType": "uint32",
          "name": "tOpen",
          "type": "uint32"
        },
        {
          "indexed": false,
          "internalType": "uint32",
          "name": "tClose",
          "type": "uint32"
        },
        {
          "indexed": false,
          "internalType": "uint32",
          "name": "tResolve",
          "type": "uint32"
        },
        {
          "indexed": false,
          "internalType": "uint8",
          "name": "nOutcomes",
          "type": "uint8"
        },
        {
          "indexed": false,
          "internalType": "contract IERC20Upgradeable",
          "name": "paymentToken",
          "type": "address"
        },
        {
          "indexed": false,
          "internalType": "uint256",
          "name": "bonusAmount",
          "type": "uint256"
        },
        {
          "indexed": false,
          "internalType": "uint256",
          "name": "minCommitmentAmount",
          "type": "uint256"
        },
        {
          "indexed": false,
          "internalType": "uint256",
          "name": "maxCommitmentAmount",
          "type": "uint256"
        },
        {
          "components": [
            {
              "internalType": "bytes32",
              "name": "version",
              "type": "bytes32"
            },
            {
              "internalType": "bytes",
              "name": "data",
              "type": "bytes"
            }
          ],
          "indexed": false,
          "internalType": "struct EncodedVirtualFloorMetadata",
          "name": "metadata",
          "type": "tuple"
        },
        {
          "indexed": false,
          "internalType": "contract IDoubleDiceApplication",
          "name": "application",
          "type": "address"
        }
      ],
      "name": "VirtualFloorCreation",
      "type": "event"
    },
    {
      "anonymous": false,
      "inputs": [
        {
          "indexed": true,
          "internalType": "uint256",
          "name": "vfId",
          "type": "uint256"
        },
        {
          "indexed": false,
          "internalType": "uint8",
          "name": "winningOutcomeIndex",
          "type": "uint8"
        },
        {
          "indexed": false,
          "internalType": "enum DoubleDiceProtocol.VirtualFloorResolutionType",
          "name": "resolutionType",
          "type": "uint8"
        },
        {
          "indexed": false,
          "internalType": "uint256",
          "name": "winnerProfits",
          "type": "uint256"
        },
        {
          "indexed": false,
          "internalType": "uint256",
          "name": "protocolFeeAmount",
          "type": "uint256"
        },
        {
          "indexed": false,
          "internalType": "uint256",
          "name": "creatorFeeAmount",
          "type": "uint256"
        }
      ],
      "name": "VirtualFloorResolution",
      "type": "event"
    },
    {
      "anonymous": false,
      "inputs": [
        {
          "indexed": true,
          "internalType": "uint256",
          "name": "vfId",
          "type": "uint256"
        },
        {
          "indexed": false,
          "internalType": "uint256",
          "name": "winningOutcomeIndexFlags",
          "type": "uint256"
        },
        {
          "indexed": false,
          "internalType": "enum DoubleDiceProtocol.VirtualFloorResolutionType",
          "name": "resolutionType",
          "type": "uint8"
        },
        {
          "indexed": false,
          "internalType": "uint256",
          "name": "winnerProfits",
          "type": "uint256"
        },
        {
          "indexed": false,
          "internalType": "uint256",
          "name": "protocolFeeAmount",
          "type": "uint256"
        },
        {
          "indexed": false,
          "internalType": "uint256",
          "name": "creatorFeeAmount",
          "type": "uint256"
        }
      ],
      "name": "VirtualFloorResolutions",
      "type": "event"
    },
    {
      "inputs": [],
      "name": "APPLICATION_ROLE",
      "outputs": [
        {
          "internalType": "bytes32",
          "name": "",
          "type": "bytes32"
        }
      ],
      "stateMutability": "view",
      "type": "function"
    },
    {
      "inputs": [],
      "name": "DEFAULT_ADMIN_ROLE",
      "outputs": [
        {
          "internalType": "bytes32",
          "name": "",
          "type": "bytes32"
        }
      ],
      "stateMutability": "view",
      "type": "function"
    },
    {
      "inputs": [],
      "name": "OPERATOR_ROLE",
      "outputs": [
        {
          "internalType": "bytes32",
          "name": "",
          "type": "bytes32"
        }
      ],
      "stateMutability": "view",
      "type": "function"
    },
    {
      "inputs": [
        {
          "internalType": "address",
          "name": "account",
          "type": "address"
        },
        {
          "internalType": "uint256",
          "name": "id",
          "type": "uint256"
        }
      ],
      "name": "balanceOf",
      "outputs": [
        {
          "internalType": "uint256",
          "name": "",
          "type": "uint256"
        }
      ],
      "stateMutability": "view",
      "type": "function"
    },
    {
      "inputs": [
        {
          "internalType": "address[]",
          "name": "accounts",
          "type": "address[]"
        },
        {
          "internalType": "uint256[]",
          "name": "ids",
          "type": "uint256[]"
        }
      ],
      "name": "balanceOfBatch",
      "outputs": [
        {
          "internalType": "uint256[]",
          "name": "",
          "type": "uint256[]"
        }
      ],
      "stateMutability": "view",
      "type": "function"
    },
    {
      "inputs": [
        {
          "internalType": "uint256",
          "name": "vfId",
          "type": "uint256"
        },
        {
          "internalType": "string",
          "name": "reason",
          "type": "string"
        }
      ],
      "name": "cancelVirtualFloorFlagged",
      "outputs": [],
      "stateMutability": "nonpayable",
      "type": "function"
    },
    {
      "inputs": [
        {
          "internalType": "uint256",
          "name": "vfId",
          "type": "uint256"
        }
      ],
      "name": "cancelVirtualFloorUnresolvable",
      "outputs": [],
      "stateMutability": "nonpayable",
      "type": "function"
    },
    {
      "inputs": [
        {
          "internalType": "uint256",
          "name": "vfId",
          "type": "uint256"
        },
        {
          "internalType": "uint256[]",
          "name": "tokenIds",
          "type": "uint256[]"
        }
      ],
      "name": "claimPayouts",
      "outputs": [],
      "stateMutability": "nonpayable",
      "type": "function"
    },
    {
      "inputs": [
        {
          "internalType": "uint256",
          "name": "vfId",
          "type": "uint256"
        },
        {
          "internalType": "uint256[]",
          "name": "tokenIds",
          "type": "uint256[]"
        }
      ],
      "name": "claimRefunds",
      "outputs": [],
      "stateMutability": "nonpayable",
      "type": "function"
    },
    {
      "inputs": [
        {
          "internalType": "uint256",
          "name": "vfId",
          "type": "uint256"
        },
        {
          "internalType": "address",
          "name": "committer",
          "type": "address"
        },
        {
          "internalType": "uint8[]",
          "name": "outcomeIndexes",
          "type": "uint8[]"
        },
        {
          "internalType": "uint256[]",
          "name": "amounts",
          "type": "uint256[]"
        },
        {
          "internalType": "uint256",
          "name": "optionalDeadline",
          "type": "uint256"
        }
      ],
      "name": "commitToVirtualFloor",
      "outputs": [],
      "stateMutability": "nonpayable",
      "type": "function"
    },
    {
      "inputs": [],
      "name": "contractURI",
      "outputs": [
        {
          "internalType": "string",
          "name": "",
          "type": "string"
        }
      ],
      "stateMutability": "view",
      "type": "function"
    },
    {
      "inputs": [
        {
          "components": [
            {
              "internalType": "uint256",
              "name": "vfId",
              "type": "uint256"
            },
            {
              "internalType": "UFixed256x18",
              "name": "betaOpen_e18",
              "type": "uint256"
            },
            {
              "internalType": "UFixed256x18",
              "name": "totalFeeRate_e18",
              "type": "uint256"
            },
            {
              "internalType": "uint32",
              "name": "tOpen",
              "type": "uint32"
            },
            {
              "internalType": "uint32",
              "name": "tClose",
              "type": "uint32"
            },
            {
              "internalType": "uint32",
              "name": "tResolve",
              "type": "uint32"
            },
            {
              "internalType": "uint8",
              "name": "nOutcomes",
              "type": "uint8"
            },
            {
              "internalType": "contract IERC20Upgradeable",
              "name": "paymentToken",
              "type": "address"
            },
            {
              "internalType": "uint256",
              "name": "bonusAmount",
              "type": "uint256"
            },
            {
              "internalType": "uint256",
              "name": "optionalMinCommitmentAmount",
              "type": "uint256"
            },
            {
              "internalType": "uint256",
              "name": "optionalMaxCommitmentAmount",
              "type": "uint256"
            },
            {
              "components": [
                {
                  "internalType": "bytes32",
                  "name": "version",
                  "type": "bytes32"
                },
                {
                  "internalType": "bytes",
                  "name": "data",
                  "type": "bytes"
                }
              ],
              "internalType": "struct EncodedVirtualFloorMetadata",
              "name": "metadata",
              "type": "tuple"
            },
            {
              "internalType": "address",
              "name": "creator",
              "type": "address"
            }
          ],
          "internalType": "struct VirtualFloorCreationParams",
          "name": "params",
          "type": "tuple"
        }
      ],
      "name": "createVirtualFloor",
      "outputs": [],
      "stateMutability": "nonpayable",
      "type": "function"
    },
    {
      "inputs": [
        {
          "internalType": "bytes32",
          "name": "role",
          "type": "bytes32"
        }
      ],
      "name": "getRoleAdmin",
      "outputs": [
        {
          "internalType": "bytes32",
          "name": "",
          "type": "bytes32"
        }
      ],
      "stateMutability": "view",
      "type": "function"
    },
    {
      "inputs": [
        {
          "internalType": "uint256",
          "name": "vfId",
          "type": "uint256"
        }
      ],
      "name": "getVirtualFloorApplication",
      "outputs": [
        {
          "internalType": "contract IDoubleDiceApplication",
          "name": "",
          "type": "address"
        }
      ],
      "stateMutability": "view",
      "type": "function"
    },
    {
      "inputs": [
        {
          "internalType": "uint256",
          "name": "vfId",
          "type": "uint256"
        }
      ],
      "name": "getVirtualFloorCreator",
      "outputs": [
        {
          "internalType": "address",
          "name": "",
          "type": "address"
        }
      ],
      "stateMutability": "view",
      "type": "function"
    },
    {
      "inputs": [
        {
          "internalType": "uint256",
          "name": "vfId",
          "type": "uint256"
        },
        {
          "internalType": "uint8",
          "name": "outcomeIndex",
          "type": "uint8"
        }
      ],
      "name": "getVirtualFloorOutcomeTotals",
      "outputs": [
        {
          "components": [
            {
              "internalType": "uint256",
              "name": "amount",
              "type": "uint256"
            },
            {
              "internalType": "UFixed256x18",
              "name": "amountTimesBeta_e18",
              "type": "uint256"
            }
          ],
          "internalType": "struct OutcomeTotals",
          "name": "",
          "type": "tuple"
        }
      ],
      "stateMutability": "view",
      "type": "function"
    },
    {
      "inputs": [
        {
          "internalType": "uint256",
          "name": "vfId",
          "type": "uint256"
        }
      ],
      "name": "getVirtualFloorParams",
      "outputs": [
        {
          "components": [
            {
              "internalType": "UFixed256x18",
              "name": "betaOpen_e18",
              "type": "uint256"
            },
            {
              "internalType": "UFixed256x18",
              "name": "totalFeeRate_e18",
              "type": "uint256"
            },
            {
              "internalType": "UFixed256x18",
              "name": "protocolFeeRate_e18",
              "type": "uint256"
            },
            {
              "internalType": "uint32",
              "name": "tOpen",
              "type": "uint32"
            },
            {
              "internalType": "uint32",
              "name": "tClose",
              "type": "uint32"
            },
            {
              "internalType": "uint32",
              "name": "tResolve",
              "type": "uint32"
            },
            {
              "internalType": "uint8",
              "name": "nOutcomes",
              "type": "uint8"
            },
            {
              "internalType": "contract IERC20Upgradeable",
              "name": "paymentToken",
              "type": "address"
            },
            {
              "internalType": "uint256",
              "name": "bonusAmount",
              "type": "uint256"
            },
            {
              "internalType": "uint256",
              "name": "minCommitmentAmount",
              "type": "uint256"
            },
            {
              "internalType": "uint256",
              "name": "maxCommitmentAmount",
              "type": "uint256"
            },
            {
              "internalType": "address",
              "name": "creator",
              "type": "address"
            },
            {
              "internalType": "contract IDoubleDiceApplication",
              "name": "application",
              "type": "address"
            }
          ],
          "internalType": "struct DoubleDiceProtocol.CreatedVirtualFloorParams",
          "name": "",
          "type": "tuple"
        }
      ],
      "stateMutability": "view",
      "type": "function"
    },
    {
      "inputs": [
        {
          "internalType": "uint256",
          "name": "vfId",
          "type": "uint256"
        }
      ],
      "name": "getVirtualFloorState",
      "outputs": [
        {
          "internalType": "enum VirtualFloorState",
          "name": "",
          "type": "uint8"
        }
      ],
      "stateMutability": "view",
      "type": "function"
    },
    {
      "inputs": [
        {
          "internalType": "bytes32",
          "name": "role",
          "type": "bytes32"
        },
        {
          "internalType": "address",
          "name": "account",
          "type": "address"
        }
      ],
      "name": "grantRole",
      "outputs": [],
      "stateMutability": "nonpayable",
      "type": "function"
    },
    {
      "inputs": [
        {
          "internalType": "bytes32",
          "name": "role",
          "type": "bytes32"
        },
        {
          "internalType": "address",
          "name": "account",
          "type": "address"
        }
      ],
      "name": "hasRole",
      "outputs": [
        {
          "internalType": "bool",
          "name": "",
          "type": "bool"
        }
      ],
      "stateMutability": "view",
      "type": "function"
    },
    {
      "inputs": [
        {
          "components": [
            {
              "internalType": "string",
              "name": "tokenMetadataUriTemplate",
              "type": "string"
            },
            {
              "internalType": "address",
              "name": "protocolFeeBeneficiary",
              "type": "address"
            },
            {
              "internalType": "UFixed256x18",
              "name": "protocolFeeRate_e18",
              "type": "uint256"
            },
            {
              "internalType": "string",
              "name": "contractURI",
              "type": "string"
            }
          ],
          "internalType": "struct DoubleDiceProtocol.DoubleDiceProtocolInitParams",
          "name": "params",
          "type": "tuple"
        }
      ],
      "name": "initialize",
      "outputs": [],
      "stateMutability": "nonpayable",
      "type": "function"
    },
    {
      "inputs": [
        {
          "internalType": "address",
          "name": "account",
          "type": "address"
        },
        {
          "internalType": "address",
          "name": "operator",
          "type": "address"
        }
      ],
      "name": "isApprovedForAll",
      "outputs": [
        {
          "internalType": "bool",
          "name": "",
          "type": "bool"
        }
      ],
      "stateMutability": "view",
      "type": "function"
    },
    {
      "inputs": [
        {
          "internalType": "contract IERC20Upgradeable",
          "name": "token",
          "type": "address"
        }
      ],
      "name": "isPaymentTokenWhitelisted",
      "outputs": [
        {
          "internalType": "bool",
          "name": "",
          "type": "bool"
        }
      ],
      "stateMutability": "view",
      "type": "function"
    },
    {
      "inputs": [
        {
          "internalType": "uint256",
          "name": "vfId",
          "type": "uint256"
        },
        {
          "internalType": "uint256[]",
          "name": "tokenIds",
          "type": "uint256[]"
        }
      ],
      "name": "legacyClaimPayouts",
      "outputs": [],
      "stateMutability": "nonpayable",
      "type": "function"
    },
    {
      "inputs": [
        {
          "internalType": "address",
          "name": "",
          "type": "address"
        }
      ],
      "name": "legacyCreationQuotas",
      "outputs": [
        {
          "internalType": "uint256",
          "name": "",
          "type": "uint256"
        }
      ],
      "stateMutability": "view",
      "type": "function"
    },
    {
      "inputs": [
        {
          "internalType": "uint256",
          "name": "",
          "type": "uint256"
        }
      ],
      "name": "legacyResolutions",
      "outputs": [
        {
          "internalType": "enum ResolutionState",
          "name": "state",
          "type": "uint8"
        },
        {
          "internalType": "uint8",
          "name": "setOutcomeIndex",
          "type": "uint8"
        },
        {
          "internalType": "uint32",
          "name": "tResultChallengeMax",
          "type": "uint32"
        },
        {
          "internalType": "uint8",
          "name": "challengeOutcomeIndex",
          "type": "uint8"
        },
        {
          "internalType": "address",
          "name": "challenger",
          "type": "address"
        }
      ],
      "stateMutability": "view",
      "type": "function"
    },
    {
      "inputs": [],
      "name": "owner",
      "outputs": [
        {
          "internalType": "address",
          "name": "",
          "type": "address"
        }
      ],
      "stateMutability": "view",
      "type": "function"
    },
    {
      "inputs": [],
      "name": "pause",
      "outputs": [],
      "stateMutability": "nonpayable",
      "type": "function"
    },
    {
      "inputs": [],
      "name": "paused",
      "outputs": [
        {
          "internalType": "bool",
          "name": "",
          "type": "bool"
        }
      ],
      "stateMutability": "view",
      "type": "function"
    },
    {
      "inputs": [],
      "name": "platformFeeBeneficiary",
      "outputs": [
        {
          "internalType": "address",
          "name": "",
          "type": "address"
        }
      ],
      "stateMutability": "view",
      "type": "function"
    },
    {
      "inputs": [],
      "name": "platformFeeRate_e18",
      "outputs": [
        {
          "internalType": "UFixed256x18",
          "name": "",
          "type": "uint256"
        }
      ],
      "stateMutability": "view",
      "type": "function"
    },
    {
      "inputs": [
        {
          "internalType": "bytes32",
          "name": "role",
          "type": "bytes32"
        },
        {
          "internalType": "address",
          "name": "account",
          "type": "address"
        }
      ],
      "name": "renounceRole",
      "outputs": [],
      "stateMutability": "nonpayable",
      "type": "function"
    },
    {
      "inputs": [
        {
          "internalType": "uint256",
          "name": "vfId",
          "type": "uint256"
        },
        {
          "internalType": "uint256",
          "name": "winningOutcomeIndexFlags",
          "type": "uint256"
        },
        {
          "internalType": "address",
          "name": "creatorFeeBeneficiary",
          "type": "address"
        }
      ],
      "name": "resolve",
      "outputs": [],
      "stateMutability": "nonpayable",
      "type": "function"
    },
    {
      "inputs": [
        {
          "internalType": "bytes32",
          "name": "role",
          "type": "bytes32"
        },
        {
          "internalType": "address",
          "name": "account",
          "type": "address"
        }
      ],
      "name": "revokeRole",
      "outputs": [],
      "stateMutability": "nonpayable",
      "type": "function"
    },
    {
      "inputs": [
        {
          "internalType": "address",
          "name": "from",
          "type": "address"
        },
        {
          "internalType": "address",
          "name": "to",
          "type": "address"
        },
        {
          "internalType": "uint256[]",
          "name": "ids",
          "type": "uint256[]"
        },
        {
          "internalType": "uint256[]",
          "name": "amounts",
          "type": "uint256[]"
        },
        {
          "internalType": "bytes",
          "name": "data",
          "type": "bytes"
        }
      ],
      "name": "safeBatchTransferFrom",
      "outputs": [],
      "stateMutability": "nonpayable",
      "type": "function"
    },
    {
      "inputs": [
        {
          "internalType": "address",
          "name": "from",
          "type": "address"
        },
        {
          "internalType": "address",
          "name": "to",
          "type": "address"
        },
        {
          "internalType": "uint256",
          "name": "id",
          "type": "uint256"
        },
        {
          "internalType": "uint256",
          "name": "amount",
          "type": "uint256"
        },
        {
          "internalType": "bytes",
          "name": "data",
          "type": "bytes"
        }
      ],
      "name": "safeTransferFrom",
      "outputs": [],
      "stateMutability": "nonpayable",
      "type": "function"
    },
    {
      "inputs": [
        {
          "internalType": "address",
          "name": "operator",
          "type": "address"
        },
        {
          "internalType": "bool",
          "name": "approved",
          "type": "bool"
        }
      ],
      "name": "setApprovalForAll",
      "outputs": [],
      "stateMutability": "nonpayable",
      "type": "function"
    },
    {
      "inputs": [
        {
          "internalType": "string",
          "name": "contractURI_",
          "type": "string"
        }
      ],
      "name": "setContractURI",
      "outputs": [],
      "stateMutability": "nonpayable",
      "type": "function"
    },
    {
      "inputs": [
        {
          "internalType": "address",
          "name": "protocolFeeBeneficiary_",
          "type": "address"
        }
      ],
      "name": "setPlatformFeeBeneficiary",
      "outputs": [],
      "stateMutability": "nonpayable",
      "type": "function"
    },
    {
      "inputs": [
        {
          "internalType": "UFixed256x18",
          "name": "protocolFeeRate_e18_",
          "type": "uint256"
        }
      ],
      "name": "setPlatformFeeRate_e18",
      "outputs": [],
      "stateMutability": "nonpayable",
      "type": "function"
    },
    {
      "inputs": [
        {
          "internalType": "string",
          "name": "template",
          "type": "string"
        }
      ],
      "name": "setTokenMetadataUriTemplate",
      "outputs": [],
      "stateMutability": "nonpayable",
      "type": "function"
    },
    {
      "inputs": [
        {
          "internalType": "bytes4",
          "name": "interfaceId",
          "type": "bytes4"
        }
      ],
      "name": "supportsInterface",
      "outputs": [
        {
          "internalType": "bool",
          "name": "",
          "type": "bool"
        }
      ],
      "stateMutability": "view",
      "type": "function"
    },
    {
      "inputs": [],
      "name": "unpause",
      "outputs": [],
      "stateMutability": "nonpayable",
      "type": "function"
    },
    {
      "inputs": [
        {
          "internalType": "contract IERC20Upgradeable",
          "name": "token",
          "type": "address"
        },
        {
          "internalType": "bool",
          "name": "isWhitelisted",
          "type": "bool"
        }
      ],
      "name": "updatePaymentTokenWhitelist",
      "outputs": [],
      "stateMutability": "nonpayable",
      "type": "function"
    },
    {
      "inputs": [
        {
          "internalType": "uint256",
          "name": "",
          "type": "uint256"
        }
      ],
      "name": "uri",
      "outputs": [
        {
          "internalType": "string",
          "name": "",
          "type": "string"
        }
      ],
      "stateMutability": "view",
      "type": "function"
    }
  ],
  "bytecode": "0x60806040523480156200001157600080fd5b50600054610100900460ff166200002f5760005460ff161562000039565b62000039620000de565b620000a15760405162461bcd60e51b815260206004820152602e60248201527f496e697469616c697a61626c653a20636f6e747261637420697320616c72656160448201526d191e481a5b9a5d1a585b1a5e995960921b606482015260840160405180910390fd5b600054610100900460ff16158015620000c4576000805461ffff19166101011790555b8015620000d7576000805461ff00191690555b506200010b565b6000620000f630620000fc60201b620026691760201c565b15905090565b6001600160a01b03163b151590565b615667806200011b6000396000f3fe608060405234801561001057600080fd5b506004361061027e5760003560e01c80638456cb591161015c578063d38c3a3c116100ce578063e985e9c511610087578063e985e9c514610647578063ed0925ea14610683578063eedf4695146106b1578063f242432a146106de578063f5b541a6146106f1578063f77369a71461071857600080fd5b8063d38c3a3c14610587578063d547741f1461059a578063d823f281146105ad578063e6ab090e146105c0578063e8a3d4851461062c578063e8ddce351461063457600080fd5b8063938e3d7b11610120578063938e3d7b14610505578063a000f90a14610518578063a217fddf14610546578063a22cb4651461054e578063bed8fb1514610561578063c3875a891461057457600080fd5b80638456cb59146104c45780638da5cb5b146103715780638dd30e7b146104cc578063912217f3146104df57806391d14854146104f257600080fd5b806336568abe116101f5578063636572db116101b9578063636572db146104245780636f58344a146104375780637213bf07146104575780637b4b0d451461046a5780637ba503461461047d5780638086fd0a1461049a57600080fd5b806336568abe146103bd5780633f4ba83a146103d057806340240249146103d85780634e1273f4146103f95780635c975abb1461041957600080fd5b8063248a9ca311610247578063248a9ca31461032857806326511ce31461034b57806329b8ed8f1461035e5780632b7dd373146103715780632eb2c2d6146103975780632f2ff15d146103aa57600080fd5b8062fdd58e1461028357806301ffc9a7146102a9578063080121da146102cc5780630e89341c146102f3578063153adcd214610313575b600080fd5b610296610291366004614351565b610738565b6040519081526020015b60405180910390f35b6102bc6102b7366004614393565b6107d4565b60405190151581526020016102a0565b6102967faf31c50b4aab7af0193b792816047837f36c88a23bbb4d0e3581c88cb4bf86ab81565b6103066103013660046143b0565b6107ee565b6040516102a09190614421565b61032661032136600461447c565b610882565b005b6102966103363660046143b0565b60009081526097602052604090206001015490565b6103266103593660046144c7565b610975565b61032661036c366004614545565b610b61565b610229546001600160a01b03165b6040516001600160a01b0390911681526020016102a0565b6103266103a53660046146b5565b610b7a565b6103266103b8366004614762565b610c0a565b6103266103cb366004614762565b610c35565b610326610caf565b6102966103e6366004614545565b6102606020526000908152604090205481565b61040c610407366004614792565b610cc6565b6040516102a09190614899565b60c95460ff166102bc565b6103266104323660046148ac565b610def565b61044a6104453660046143b0565b6111da565b6040516102a091906148e5565b6103266104653660046149cb565b61135b565b610326610478366004614a0c565b6113a6565b61022954655af3107a4000600160a01b90910461ffff1602610296565b61037f6104a83660046143b0565b600090815261022860205260409020546001600160a01b031690565b6103266117fe565b6103266104da366004614a47565b611812565b6103266104ed366004614a92565b6119a4565b6102bc610500366004614762565b611e71565b610326610513366004614b82565b611e9c565b61037f6105263660046143b0565b60009081526102286020526040902061020301546001600160a01b031690565b610296600081565b61032661055c366004614bd8565b611eb1565b61032661056f366004614bd8565b611ebc565b6103266105823660046144c7565b611ed2565b6103266105953660046143b0565b61219a565b6103266105a8366004614762565b612264565b6103266105bb3660046143b0565b61228a565b61061b6105ce3660046143b0565b61025f6020526000908152604090205460ff80821691610100810482169162010000820463ffffffff1691600160301b81049091169067010000000000000090046001600160a01b031685565b6040516102a0959493929190614c1c565b61030661229f565b6103266106423660046144c7565b612332565b6102bc610655366004614c66565b6001600160a01b03918216600090815260666020908152604080832093909416825291909152205460ff1690565b610696610691366004614c94565b612565565b604080518251815260209283015192810192909252016102a0565b6102bc6106bf366004614545565b6001600160a01b0316600090815261022b602052604090205460ff1690565b6103266106ec366004614cc0565b6125ca565b6102967f97667070c54ef182b0f5858b034beac1b6f3089aa2d3188bb1e8929f4fa9b92981565b61072b6107263660046143b0565b612651565b6040516102a09190614d3c565b60006001600160a01b0383166107a95760405162461bcd60e51b815260206004820152602b60248201527f455243313135353a2062616c616e636520717565727920666f7220746865207a60448201526a65726f206164647265737360a81b60648201526084015b60405180910390fd5b5060008181526065602090815260408083206001600160a01b03861684529091529020545b92915050565b60006107df82612678565b806107ce57506107ce826126c8565b6060606780546107fd90614d4a565b80601f016020809104026020016040519081016040528092919081815260200182805461082990614d4a565b80156108765780601f1061084b57610100808354040283529160200191610876565b820191906000526020600020905b81548152906001019060200180831161085957829003601f168201915b50505050509050919050565b7f97667070c54ef182b0f5858b034beac1b6f3089aa2d3188bb1e8929f4fa9b9296108ad81336126ed565b600084815261022860205260409020600180820154600160481b900460ff1660058111156108dd576108dd614c06565b14610905576108eb81612751565b604051631dec7d6160e31b81526004016107a09190614d3c565b60018101805460ff60481b1916690500000000000000000017905560405185907f5c8107eeacd78d24aad115f794cf63582ccd20eab6a50845e8bdcba171acea64906109549087908790614da8565b60405180910390a2610965816128bf565b61096e856128f6565b5050505050565b60c95460ff16156109985760405162461bcd60e51b81526004016107a090614dbc565b6000838152610228602052604090206109b081612962565b6109bd576108eb81612751565b33600080846001600160401b038111156109d9576109d9614562565b604051908082528060200260200182016040528015610a02578160200160208202803683370190505b50905060005b85811015610aef576000878783818110610a2457610a24614de6565b9050602002013590506000610a38826129e0565b50509050898114610a5f57604051630349fe3760e51b8152600481018390526024016107a0565b60008281526065602090815260408083206001600160a01b038a16845290915290205484518190869086908110610a9857610a98614de6565b60209081029190910101528015610ad95760008381526065602090815260408083206001600160a01b038b168452909152812055610ad68187614e12565b95505b5050508080610ae790614e2a565b915050610a08565b5060006001600160a01b0316836001600160a01b0316846001600160a01b0316600080516020615612833981519152898986604051610b3093929190614e45565b60405180910390a46001840154610b5890600160581b90046001600160a01b031684846129fc565b50505050505050565b6000610b6d81336126ed565b610b7682612a5f565b5050565b6001600160a01b038516331480610b965750610b968533610655565b610bfd5760405162461bcd60e51b815260206004820152603260248201527f455243313135353a207472616e736665722063616c6c6572206973206e6f74206044820152711bdddb995c881b9bdc88185c1c1c9bdd995960721b60648201526084016107a0565b61096e8585858585612af0565b600082815260976020526040902060010154610c2681336126ed565b610c308383612c8b565b505050565b6001600160a01b0381163314610ca55760405162461bcd60e51b815260206004820152602f60248201527f416363657373436f6e74726f6c3a2063616e206f6e6c792072656e6f756e636560448201526e103937b632b9903337b91039b2b63360891b60648201526084016107a0565b610b768282612d11565b6000610cbb81336126ed565b610cc3612d78565b50565b60608151835114610d2b5760405162461bcd60e51b815260206004820152602960248201527f455243313135353a206163636f756e747320616e6420696473206c656e677468604482015268040dad2e6dac2e8c6d60bb1b60648201526084016107a0565b600083516001600160401b03811115610d4657610d46614562565b604051908082528060200260200182016040528015610d6f578160200160208202803683370190505b50905060005b8451811015610de757610dba858281518110610d9357610d93614de6565b6020026020010151858381518110610dad57610dad614de6565b6020026020010151610738565b828281518110610dcc57610dcc614de6565b6020908102919091010152610de081614e2a565b9050610d75565b509392505050565b60c95460ff1615610e1357604051635a171e0760e11b815260040160405180910390fd5b60008381526102286020526040812090610e2c82612751565b90506005816009811115610e4257610e42614c06565b14610e625780604051631dec7d6160e31b81526004016107a09190614d3c565b506102038101546001600160a01b0316336001600160a01b031614610e9a5760405163b4ee3af160e01b815260040160405180910390fd5b61020181015460009081808681805b600188015460ff600160401b90910481169082161015610f7c57876002018160ff1660ff8110610edb57610edb614de6565b6002020154610eea9087614e12565b95506001831615610f6357876002018160ff1660ff8110610f0d57610f0d614de6565b6002020154610f1c9086614e12565b9450610f50886002018260ff1660ff8110610f3957610f39614de6565b600202016001015485612e0b90919063ffffffff16565b9350905080610f60600188614e12565b96505b60019290921c9180610f7481614e92565b915050610ea9565b506001861015610f9f5760405163a697864360e01b815260040160405180910390fd5b8115610fbe5760405163a697864360e01b815260040160405180910390fd5b6001870154600160401b900460ff168610610fec576040516319fed67760e01b815260040160405180910390fd5b85600114610ffb5760ff610ffd565b805b6102008801805460ff191660ff929092169190911790555050610204850187905560008080808561105a575050505060018501805460ff60481b191669030000000000000000001790556000808080611055896128bf565b611183565b60018981018054690200000000000000000060ff60481b1990911617908190559094506000906110aa906110a5908a90640100000000900461ffff16655af3107a4000025b90612e1e565b612e2a565b905060006110b8888a614eb2565b905060006110c68383612e3e565b905080820393506110d684612e54565b6102008d0180546001600160c01b039290921661010002610100600160c81b03199092169190911790556102058c0188905560018c0154611130906110a590839061ffff600160301b90910416655af3107a40000261109f565b6102295460018e015491975061115a91600160581b90046001600160a01b039081169116886129fc565b60018c0154868203955061117f90600160581b90046001600160a01b03168e876129fc565b5050505b8b7ff8fe47e2e535535c7c2f79c5a3091e3edb34a034a5dd217d936e23bcd1accc6b8c868487876040516111bb959493929190614ec9565b60405180910390a26111cc8c6128f6565b505050505050505050505050565b604080516101a081018252600080825260208201819052918101829052606081018290526080810182905260a0810182905260c0810182905260e081018290526101008101829052610120810182905261014081018290526101608101829052610180810191909152600082815261022860205260408120908061125d83612e85565b604080516101a08101909152600186015492945090925090819061129890670de0b6b3a76400009063ffffffff1664e8d4a510000290612e0b565b81526001850154655af3107a4000640100000000820461ffff90811682026020850152600160301b830416026040830152855463ffffffff600160a01b820481166060850152600160c01b820481166080850152600160e01b82041660a084015260ff600160401b83041660c08401526001600160a01b03600160581b909204821660e084015261020187015461010084015261012083019590955261014082019390935292821661016084015261020390930154166101809091015292915050565b600061136781336126ed565b610c3083838080601f016020809104026020016040519081016040528093929190818152602001838380828437600092019190915250612eb892505050565b7faf31c50b4aab7af0193b792816047837f36c88a23bbb4d0e3581c88cb4bf86ab6113d181336126ed565b60c95460ff16156113f45760405162461bcd60e51b81526004016107a090614dbc565b6113fd82612ecb565b61140682613026565b4211156114265760405163ecdd1c2960e01b815260040160405180910390fd5b8135600090815261022860205260408120906001820154600160481b900460ff16600581111561145857611458614c06565b146114765760405163d1f5220f60e01b815260040160405180910390fd5b61148a6106bf610100850160e08601614545565b6114a7576040516334ea197560e01b815260040160405180910390fd5b60018101805460ff60481b1916600160481b1790556114ce6101a084016101808501614545565b81546001600160a01b0319166001600160a01b03919091161781556115076115026020850135670de0b6b3a7640000613084565b613090565b60018201805463ffffffff191663ffffffff9290921691909117905561153060408401356130df565b60018201805465ffff0000000019811664010000000061ffff9485160290811783556102295467ffffffff000000001990921667ffff0000000000001990911617600160a01b909104909216600160301b029190911790556115986080840160608501614f14565b815463ffffffff91909116600160a01b0263ffffffff60a01b199091161781556115c860a0840160808501614f14565b815463ffffffff91909116600160c01b0263ffffffff60c01b199091161781556115f860c0840160a08501614f14565b815463ffffffff91909116600160e01b026001600160e01b0390911617815561162760e0840160c08501614f31565b60018201805460ff92909216600160401b0268ff00000000000000001990921691909117905561165e610100840160e08501614545565b6001820180547fff0000000000000000000000000000000000000000ffffffffffffffffffffff16600160581b6001600160a01b039390931692909202919091179055610203810180546001600160a01b03191633179055610100830135156117425761010083013561020182015560018082018054600a906116ec908490600160501b900460ff16614f4c565b92506101000a81548160ff021916908360ff1602179055506117428361018001602081019061171b9190614545565b3061010086018035906117319060e08901614545565b6001600160a01b031692919061312a565b600080611753856101200135613168565b610202840180546fffffffffffffffffffffffffffffffff19166001600160801b039290921691909117905561178d610140860135613168565b610202840180546001600160801b03928316600160801b0292169190911790556117b683612e85565b9092509050600182108015906117cc5750808211155b80156117d6575060015b6117f3576040516310fdf0cd60e11b815260040160405180910390fd5b61096e8583836131d1565b600061180a81336126ed565b610cc36132d2565b600054610100900460ff1661182d5760005460ff1615611831565b303b155b6118945760405162461bcd60e51b815260206004820152602e60248201527f496e697469616c697a61626c653a20636f6e747261637420697320616c72656160448201526d191e481a5b9a5d1a585b1a5e995960921b60648201526084016107a0565b600054610100900460ff161580156118b6576000805461ffff19166101011790555b6118fd6118c38380614f71565b8080601f01602080910402602001604051908101604052809392919081815260200183838082843760009201919091525061332a92505050565b61190561335a565b61190d613383565b6119156133b2565b611920600033612c8b565b6119386119336040840160208501614545565b612a5f565b61194582604001356133e1565b61198f6119556060840184614f71565b8080601f01602080910402602001604051908101604052809392919081815260200183838082843760009201919091525061346b92505050565b8015610b76576000805461ff00191690555050565b60c95460ff16156119c75760405162461bcd60e51b81526004016107a090614dbc565b600260fb541415611a1a5760405162461bcd60e51b815260206004820152601f60248201527f5265656e7472616e637947756172643a207265656e7472616e742063616c6c0060448201526064016107a0565b600260fb558251825114611a4157604051637a0a458b60e01b815260040160405180910390fd5b8015611a685780421115611a68576040516325ffa2d160e21b815260040160405180910390fd5b611a71856134af565b611a8e57604051633f746f1b60e11b815260040160405180910390fd5b600085815261022860205260409020611aa6816134cc565b611ab3576108eb81612751565b6102038101546001600160a01b0316336001600160a01b031614611aea5760405163b4ee3af160e01b815260040160405180910390fd5b600084516001600160401b03811115611b0557611b05614562565b604051908082528060200260200182016040528015611b2e578160200160208202803683370190505b509050600085516001600160401b03811115611b4c57611b4c614562565b604051908082528060200260200182016040528015611b75578160200160208202803683370190505b509050600080611b8485612e85565b915091506000611b938861350b565b9050808311158015611ba55750818111155b611bc2576040516335e05eeb60e21b815260040160405180910390fd5b60005b8951811015611dfb5760008a8281518110611be257611be2614de6565b6020026020010151905060008a8381518110611c0057611c00614de6565b602090810291909101015160018a01549091508e9060ff600160401b909104811690841610611c425760405163a697864360e01b815260040160405180910390fd5b60018a0154611c6390600160581b90046001600160a01b03168f308561312a565b6102038a0154604051633a4bcc1b60e21b81526004810183905260ff851660248201524260448201819052916000916001600160a01b039091169063e92f306c90606401602060405180830381865afa158015611cc4573d6000803e3d6000fd5b505050506040513d601f19601f82011682018060405250810190611ce89190614fb7565b905064e8d4a5100063ffffffff8216028a8781518110611d0a57611d0a614de6565b60200260200101818152505060008c6002018660ff1660ff8110611d3057611d30614de6565b600202018054909150611d755760018d81018054600a90611d5c908490600160501b900460ff16614f4c565b92506101000a81548160ff021916908360ff1602179055505b84816000016000828254611d899190614e12565b90915550611db49050611da98664e8d4a5100063ffffffff86160261109f565b600183015490612e0b565b6001820155611dc4848784613551565b8c8881518110611dd657611dd6614de6565b6020026020010181815250505050505050508080611df390614e2a565b915050611bc5565b50896001600160a01b03168b7f65255059e27625667b494ed3d04d3e6bc03fc71856def94f67de1a06be3672e18b8b888a604051611e3c9493929190614fd4565b60405180910390a3611e5f8a868a604051806020016040528060008152506135c3565b5050600160fb55505050505050505050565b60009182526097602090815260408084206001600160a01b0393909316845291905290205460ff1690565b6000611ea881336126ed565b610b768261346b565b610b76338383613746565b6000611ec881336126ed565b610c308383613827565b60c95460ff1615611ef55760405162461bcd60e51b81526004016107a090614dbc565b60008381526102286020526040812090611f0e82612751565b90506006816009811115611f2457611f24614c06565b14611f445780604051631dec7d6160e31b81526004016107a09190614d3c565b5033600080846001600160401b03811115611f6157611f61614562565b604051908082528060200260200182016040528015611f8a578160200160208202803683370190505b5061020085015490915060ff90811690600090600287019083908110611fb257611fb2614de6565b600202016001015461020087015490915061010090046001600160c01b031660005b888110156121255760008a8a83818110611ff057611ff0614de6565b9050602002013590506000806000612007846129e0565b9250925092508e831461203057604051630349fe3760e51b8152600481018590526024016107a0565b60008481526065602090815260408083206001600160a01b038f168452909152902054895181908b908890811061206957612069614de6565b60200260200101818152505060006065600087815260200190815260200160002060008e6001600160a01b03166001600160a01b03168152602001908152602001600020819055508860ff168360ff16141561210d5763ffffffff821664e8d4a510000260006120d98284612e1e565b905060006120f18b6120eb848d612e1e565b90613887565b90506120fd8185614e12565b612107908f614e12565b9d505050505b5050505050808061211d90614e2a565b915050611fd4565b5060006001600160a01b0316866001600160a01b0316876001600160a01b03166000805160206156128339815191528c8c8960405161216693929190614e45565b60405180910390a4600187015461218e90600160581b90046001600160a01b031687876129fc565b50505050505050505050565b60c95460ff16156121bd5760405162461bcd60e51b81526004016107a090614dbc565b600081815261022860205260408120906121d682612751565b905060038160098111156121ec576121ec614c06565b1461220c5780604051631dec7d6160e31b81526004016107a09190614d3c565b60018201805460ff60481b1916690400000000000000000017905560405183907f6c7783bf74dd0cee68061f408241dae0034bdfe3a40b442107929c303113620e90600090a261225b826128bf565b610c30836128f6565b60008281526097602052604090206001015461228081336126ed565b610c308383612d11565b600061229681336126ed565b610b76826133e1565b606061022a80546122af90614d4a565b80601f01602080910402602001604051908101604052809291908181526020018280546122db90614d4a565b80156123285780601f106122fd57610100808354040283529160200191612328565b820191906000526020600020905b81548152906001019060200180831161230b57829003601f168201915b5050505050905090565b60c95460ff16156123555760405162461bcd60e51b81526004016107a090614dbc565b6000838152610228602052604081209061236e82612751565b9050600681600981111561238457612384614c06565b146123a45780604051631dec7d6160e31b81526004016107a09190614d3c565b5033600080846001600160401b038111156123c1576123c1614562565b6040519080825280602002602001820160405280156123ea578160200160208202803683370190505b5061020085015461020586015491925060ff8116919061010090046001600160c01b031660005b888110156121255760008a8a8381811061242d5761242d614de6565b9050602002013590506000806000612444846129e0565b9250925092508e831461246d57604051630349fe3760e51b8152600481018590526024016107a0565b60008481526065602090815260408083206001600160a01b038f168452909152902054895181908b90889081106124a6576124a6614de6565b60200260200101818152505060006065600087815260200190815260200160002060008e6001600160a01b03166001600160a01b03168152602001908152602001600020819055508860ff168360ff16141561254d5760006125118e63ffffffff8086169061389316565b9050600061251f8284612e1e565b905060006125318b6120eb848d612e1e565b905061253d8185614e12565b612547908f614e12565b9d505050505b5050505050808061255d90614e2a565b915050612411565b604080518082019091526000808252602082015260008381526102286020526040902060020160ff80841690811061259f5761259f614de6565b6002020160405180604001604052908160008201548152602001600182015481525050905092915050565b6001600160a01b0385163314806125e657506125e68533610655565b6126445760405162461bcd60e51b815260206004820152602960248201527f455243313135353a2063616c6c6572206973206e6f74206f776e6572206e6f7260448201526808185c1c1c9bdd995960ba1b60648201526084016107a0565b61096e858585858561392f565b6000818152610228602052604081206107ce90612751565b6001600160a01b03163b151590565b60006001600160e01b03198216636cdb3d1360e11b14806126a957506001600160e01b031982166303a24d0760e21b145b806107ce57506301ffc9a760e01b6001600160e01b03198316146107ce565b60006001600160e01b03198216637965db0b60e01b14806107ce57506107ce82612678565b6126f78282611e71565b610b765761270f816001600160a01b03166014613a56565b61271a836020613a56565b60405160200161272b92919061504d565b60408051601f198184030181529082905262461bcd60e51b82526107a091600401614421565b6001810154600090600160481b900460ff168181600581111561277657612776614c06565b14156127855750600092915050565b600181600581111561279957612799614c06565b1415612826578254600160c01b900463ffffffff164210156127de5760018301546002600160501b90910460ff16106127d55750600292915050565b50600192915050565b60018301546002600160501b90910460ff161061281d578254600160e01b900463ffffffff164210156128145750600492915050565b50600592915050565b50600392915050565b600281600581111561283a5761283a614c06565b14156128495750600692915050565b600381600581111561285d5761285d614c06565b141561286c5750600792915050565b600481600581111561288057612880614c06565b141561288f5750600892915050565b60058160058111156128a3576128a3614c06565b146128b0576128b06150c2565b50600992915050565b50919050565b61020181015415610cc35780546102018201546001830154610cc3926001600160a01b03600160581b9092048216929116906129fc565b60008181526102286020526040908190206102030154905163102e9cff60e31b8152600481018390526001600160a01b0390911690638174e7f890602401600060405180830381600087803b15801561294e57600080fd5b505af115801561096e573d6000803e3d6000fd5b600060036001830154600160481b900460ff16600581111561298657612986614c06565b14806129b1575060046001830154600160481b900460ff1660058111156129af576129af614c06565b145b806107ce575060056001830154600160481b900460ff1660058111156129d9576129d9614c06565b1492915050565b64ffffffffff1981169160ff602083901c169163ffffffff1690565b6040516001600160a01b038316602482015260448101829052610c3090849063a9059cbb60e01b906064015b60408051601f198184030181529190526020810180516001600160e01b03166001600160e01b031990931692909217909152613bf1565b610229546040516001600160a01b038084169216907f8be0079c531659141344cd1fd0a4f28419497f9722a3daafe3b4186f6b6457e090600090a361022980546001600160a01b0319166001600160a01b0383169081179091556040519081527fed066dc542ab39d109cbb08e8f53e81da22258a4453c9e1fa40df1d23466a266906020015b60405180910390a150565b8151835114612b115760405162461bcd60e51b81526004016107a0906150d8565b6001600160a01b038416612b375760405162461bcd60e51b81526004016107a090615120565b33612b46818787878787613cc3565b60005b8451811015612c2f576000858281518110612b6657612b66614de6565b602002602001015190506000858381518110612b8457612b84614de6565b60209081029190910181015160008481526065835260408082206001600160a01b038e168352909352919091205490915081811015612bd55760405162461bcd60e51b81526004016107a090615165565b60008381526065602090815260408083206001600160a01b038e8116855292528083208585039055908b16825281208054849290612c14908490614e12565b9250508190555050505080612c2890614e2a565b9050612b49565b50846001600160a01b0316866001600160a01b0316826001600160a01b03166000805160206156128339815191528787604051612c6d9291906151af565b60405180910390a4612c83818787878787613dcd565b505050505050565b612c958282611e71565b610b765760008281526097602090815260408083206001600160a01b03851684529091529020805460ff19166001179055612ccd3390565b6001600160a01b0316816001600160a01b0316837f2f8788117e7eff1d82e926ec794901d17c78024a50270940304540a733656f0d60405160405180910390a45050565b612d1b8282611e71565b15610b765760008281526097602090815260408083206001600160a01b0385168085529252808320805460ff1916905551339285917ff6391f5c32d9c69d2a47ea670b442974b53935d1edc7fd64eb21e047a839171b9190a45050565b60c95460ff16612dc15760405162461bcd60e51b815260206004820152601460248201527314185d5cd8589b194e881b9bdd081c185d5cd95960621b60448201526064016107a0565b60c9805460ff191690557f5db9ee0a495bf2e6ff9c91a7834c1ba4fdd244a5e8aa4e537bd38aeae4b073aa335b6040516001600160a01b03909116815260200160405180910390a1565b6000612e178284614e12565b9392505050565b6000612e1782846151d4565b60006107ce670de0b6b3a764000083615209565b6000818310612e4d5781612e17565b5090919050565b60006001600160c01b03821115612e815760405163be5e271960e01b8152600481018390526024016107a0565b5090565b6102028101546001600160801b0380821691600160801b90041681612ea957600191505b80612eb357506000195b915091565b8051610b769060679060208401906142ac565b8035612eea576040516365aff68b60e11b815260040160405180910390fd5b612ef481356134af565b612f11576040516365aff68b60e11b815260040160405180910390fd5b6040810135670de0b6b3a76400001015612f3e576040516306d8c7fd60e11b815260040160405180910390fd5b612f4e60a0820160808301614f14565b63ffffffff16612f646080830160608401614f14565b63ffffffff16108015612fa15750612f8260c0820160a08301614f14565b63ffffffff16612f9860a0830160808401614f14565b63ffffffff1611155b612fbe57604051637063c71f60e11b815260040160405180910390fd5b6002612fd060e0830160c08401614f31565b60ff161015612ff25760405163726c344560e11b815260040160405180910390fd5b60fe61300460e0830160c08401614f31565b60ff161115610cc35760405163415e59fd60e01b815260040160405180910390fd5b6000600a61303a6080840160608501614f14565b61304a60a0850160808601614f14565b613054919061521d565b61305e9190615242565b61306e6080840160608501614f14565b6130789190615265565b63ffffffff1692915050565b6000612e178284614eb2565b60006130a96130a464e8d4a5100084615209565b613f29565b905063ffffffff811664e8d4a510000282146130da5760405162ecc92960e81b8152600481018390526024016107a0565b919050565b60006130f96130f4655af3107a400084615209565b613f8e565b905061ffff8116655af3107a40000282146130da576040516318c63b4560e31b8152600481018390526024016107a0565b6040516001600160a01b03808516602483015283166044820152606481018290526131629085906323b872dd60e01b90608401612a28565b50505050565b60006001600160801b03821115612e815760405162461bcd60e51b815260206004820152602760248201527f53616665436173743a2076616c756520646f65736e27742066697420696e20316044820152663238206269747360c81b60648201526084016107a0565b366131e061016085018561528d565b9050336131f56101a086016101808701614545565b610229546001600160a01b0391909116908635907f70802dcdc91170e3c5af61be02f69a852ee36fbe0564bd45e4812f09a56d41e49060208901359060408a013590600160a01b900461ffff16655af3107a40000261325a60808c0160608d01614f14565b61326a60a08d0160808e01614f14565b61327a60c08e0160a08f01614f14565b8d60c001602081019061328d9190614f31565b8e60e00160208101906132a09190614545565b8f61010001358f8f8f8f6040516132c39d9c9b9a99989796959493929190615309565b60405180910390a35050505050565b60c95460ff16156132f55760405162461bcd60e51b81526004016107a090614dbc565b60c9805460ff191660011790557f62e78cea01bee320cd4e420270b5ea74000d11b0c9f74754ebdbfc544b05a258612dee3390565b600054610100900460ff166133515760405162461bcd60e51b81526004016107a0906153a6565b610cc381613ff1565b600054610100900460ff166133815760405162461bcd60e51b81526004016107a0906153a6565b565b600054610100900460ff166133aa5760405162461bcd60e51b81526004016107a0906153a6565b613381614021565b600054610100900460ff166133d95760405162461bcd60e51b81526004016107a0906153a6565b613381614054565b6133f381670de0b6b3a7640000101590565b613410576040516313dc9f9160e21b815260040160405180910390fd5b613419816130df565b610229805461ffff92909216600160a01b0261ffff60a01b199092169190911790556040518181527f4dbc5ec4ae8e9fec522bd415321e0ba93666a15ee531c6dde6a5acb75d9f608890602001612ae5565b805161347f9061022a9060208401906142ac565b507f5a381feb44d0e107829cd2fcde8ec87ca91ae94b43e505b14c36b31a0602513581604051612ae59190614421565b6000606882901c60011480156107ce57505064ffffffffff161590565b6000600180830154600160481b900460ff1660058111156134ef576134ef614c06565b1480156107ce57505054600160c01b900463ffffffff16421090565b6000805b82518110156128b95782818151811061352a5761352a614de6565b60200260200101518261353d9190614e12565b91508061354981614e2a565b91505061350f565b600061355c846134af565b613568576135686150c2565b6040805164ffffffffff19861660208201526001600160f81b031960f886901b16603b8201526001600160e01b031960e085901b16603c820152016040516020818303038152906040526135bb906153f1565b949350505050565b6001600160a01b0384166136235760405162461bcd60e51b815260206004820152602160248201527f455243313135353a206d696e7420746f20746865207a65726f206164647265736044820152607360f81b60648201526084016107a0565b81518351146136445760405162461bcd60e51b81526004016107a0906150d8565b3361365481600087878787613cc3565b60005b84518110156136f05783818151811061367257613672614de6565b60200260200101516065600087848151811061369057613690614de6565b602002602001015181526020019081526020016000206000886001600160a01b03166001600160a01b0316815260200190815260200160002060008282546136d89190614e12565b909155508190506136e881614e2a565b915050613657565b50846001600160a01b031660006001600160a01b0316826001600160a01b0316600080516020615612833981519152878760405161372f9291906151af565b60405180910390a461096e81600087878787613dcd565b816001600160a01b0316836001600160a01b031614156137ba5760405162461bcd60e51b815260206004820152602960248201527f455243313135353a2073657474696e6720617070726f76616c20737461747573604482015268103337b91039b2b63360b91b60648201526084016107a0565b6001600160a01b03838116600081815260666020908152604080832094871680845294825291829020805460ff191686151590811790915591519182527f17307eab39ab6107e8899845ad3d59bd9653f200f220920489ca2b5937696c31910160405180910390a3505050565b6001600160a01b038216600081815261022b6020908152604091829020805460ff191685151590811790915591519182527f7cc10d1ca35e344ff490a928a762076d302294538f2cfc183a029a97ee7cba85910160405180910390a25050565b6000612e178284615209565b815460009081906138b190600160a01b900463ffffffff1684614082565b6001850154855491925064e8d4a5100063ffffffff918216029161392691613917916138ee91600160a01b8204811691600160c01b90041661521d565b875463ffffffff918216916120eb91613910918891600160c01b900416614eb2565b8590612e1e565b670de0b6b3a764000090612e0b565b95945050505050565b6001600160a01b0384166139555760405162461bcd60e51b81526004016107a090615120565b3361397481878761396588614092565b61396e88614092565b87613cc3565b60008481526065602090815260408083206001600160a01b038a168452909152902054838110156139b75760405162461bcd60e51b81526004016107a090615165565b60008581526065602090815260408083206001600160a01b038b81168552925280832087850390559088168252812080548692906139f6908490614e12565b909155505060408051868152602081018690526001600160a01b03808916928a821692918616917fc3d58168c5ae7397731d063d5bbf3d657854427343f4c083240f7aacaa2d0f62910160405180910390a4610b588288888888886140dd565b60606000613a658360026151d4565b613a70906002614e12565b6001600160401b03811115613a8757613a87614562565b6040519080825280601f01601f191660200182016040528015613ab1576020820181803683370190505b509050600360fc1b81600081518110613acc57613acc614de6565b60200101906001600160f81b031916908160001a905350600f60fb1b81600181518110613afb57613afb614de6565b60200101906001600160f81b031916908160001a9053506000613b1f8460026151d4565b613b2a906001614e12565b90505b6001811115613ba2576f181899199a1a9b1b9c1cb0b131b232b360811b85600f1660108110613b5e57613b5e614de6565b1a60f81b828281518110613b7457613b74614de6565b60200101906001600160f81b031916908160001a90535060049490941c93613b9b81615415565b9050613b2d565b508315612e175760405162461bcd60e51b815260206004820181905260248201527f537472696e67733a20686578206c656e67746820696e73756666696369656e7460448201526064016107a0565b6000613c46826040518060400160405280602081526020017f5361666545524332303a206c6f772d6c6576656c2063616c6c206661696c6564815250856001600160a01b03166141989092919063ffffffff16565b805190915015610c305780806020019051810190613c64919061542c565b610c305760405162461bcd60e51b815260206004820152602a60248201527f5361666545524332303a204552433230206f7065726174696f6e20646964206e6044820152691bdd081cdd58d8d9595960b21b60648201526084016107a0565b6001600160a01b0385161580613ce057506001600160a01b038416155b15613cea57612c83565b60c95460ff1615613d0e5760405163d3b880f560e01b815260040160405180910390fd5b60005b8351811015610b58576000848281518110613d2e57613d2e614de6565b602002602001015190506000613d646102286000613d518564ffffffffff191690565b8152602001908152602001600020612751565b90506002816009811115613d7a57613d7a614c06565b1480613d9757506004816009811115613d9557613d95614c06565b145b613db8578181604051634bcf3a1960e11b81526004016107a0929190615449565b50508080613dc590614e2a565b915050613d11565b6001600160a01b0384163b15612c835760405163bc197c8160e01b81526001600160a01b0385169063bc197c8190613e11908990899088908890889060040161545d565b6020604051808303816000875af1925050508015613e4c575060408051601f3d908101601f19168201909252613e49918101906154bb565b60015b613ef957613e586154d8565b806308c379a01415613e925750613e6d6154f4565b80613e785750613e94565b8060405162461bcd60e51b81526004016107a09190614421565b505b60405162461bcd60e51b815260206004820152603460248201527f455243313135353a207472616e7366657220746f206e6f6e20455243313135356044820152732932b1b2b4bb32b91034b6b83632b6b2b73a32b960611b60648201526084016107a0565b6001600160e01b0319811663bc197c8160e01b14610b585760405162461bcd60e51b81526004016107a09061557d565b600063ffffffff821115612e815760405162461bcd60e51b815260206004820152602660248201527f53616665436173743a2076616c756520646f65736e27742066697420696e203360448201526532206269747360d01b60648201526084016107a0565b600061ffff821115612e815760405162461bcd60e51b815260206004820152602660248201527f53616665436173743a2076616c756520646f65736e27742066697420696e203160448201526536206269747360d01b60648201526084016107a0565b600054610100900460ff166140185760405162461bcd60e51b81526004016107a0906153a6565b610cc381612eb8565b600054610100900460ff166140485760405162461bcd60e51b81526004016107a0906153a6565b60c9805460ff19169055565b600054610100900460ff1661407b5760405162461bcd60e51b81526004016107a0906153a6565b600160fb55565b600081831015612e4d5781612e17565b604080516001808252818301909252606091600091906020808301908036833701905050905082816000815181106140cc576140cc614de6565b602090810291909101015292915050565b6001600160a01b0384163b15612c835760405163f23a6e6160e01b81526001600160a01b0385169063f23a6e619061412190899089908890889088906004016155c5565b6020604051808303816000875af192505050801561415c575060408051601f3d908101601f19168201909252614159918101906154bb565b60015b61416857613e586154d8565b6001600160e01b0319811663f23a6e6160e01b14610b585760405162461bcd60e51b81526004016107a09061557d565b60606135bb8484600085856001600160a01b0385163b6141fa5760405162461bcd60e51b815260206004820152601d60248201527f416464726573733a2063616c6c20746f206e6f6e2d636f6e747261637400000060448201526064016107a0565b600080866001600160a01b0316858760405161421691906155ff565b60006040518083038185875af1925050503d8060008114614253576040519150601f19603f3d011682016040523d82523d6000602084013e614258565b606091505b5091509150614268828286614273565b979650505050505050565b60608315614282575081612e17565b8251156142925782518084602001fd5b8160405162461bcd60e51b81526004016107a09190614421565b8280546142b890614d4a565b90600052602060002090601f0160209004810192826142da5760008555614320565b82601f106142f357805160ff1916838001178555614320565b82800160010185558215614320579182015b82811115614320578251825591602001919060010190614305565b50612e819291505b80821115612e815760008155600101614328565b6001600160a01b0381168114610cc357600080fd5b6000806040838503121561436457600080fd5b823561436f8161433c565b946020939093013593505050565b6001600160e01b031981168114610cc357600080fd5b6000602082840312156143a557600080fd5b8135612e178161437d565b6000602082840312156143c257600080fd5b5035919050565b60005b838110156143e45781810151838201526020016143cc565b838111156131625750506000910152565b6000815180845261440d8160208601602086016143c9565b601f01601f19169290920160200192915050565b602081526000612e1760208301846143f5565b60008083601f84011261444657600080fd5b5081356001600160401b0381111561445d57600080fd5b60208301915083602082850101111561447557600080fd5b9250929050565b60008060006040848603121561449157600080fd5b8335925060208401356001600160401b038111156144ae57600080fd5b6144ba86828701614434565b9497909650939450505050565b6000806000604084860312156144dc57600080fd5b8335925060208401356001600160401b03808211156144fa57600080fd5b818601915086601f83011261450e57600080fd5b81358181111561451d57600080fd5b8760208260051b850101111561453257600080fd5b6020830194508093505050509250925092565b60006020828403121561455757600080fd5b8135612e178161433c565b634e487b7160e01b600052604160045260246000fd5b601f8201601f191681016001600160401b038111828210171561459d5761459d614562565b6040525050565b60006001600160401b038211156145bd576145bd614562565b5060051b60200190565b600082601f8301126145d857600080fd5b813560206145e5826145a4565b6040516145f28282614578565b83815260059390931b850182019282810191508684111561461257600080fd5b8286015b8481101561462d5780358352918301918301614616565b509695505050505050565b60006001600160401b0383111561465157614651614562565b604051614668601f8501601f191660200182614578565b80915083815284848401111561467d57600080fd5b83836020830137600060208583010152509392505050565b600082601f8301126146a657600080fd5b612e1783833560208501614638565b600080600080600060a086880312156146cd57600080fd5b85356146d88161433c565b945060208601356146e88161433c565b935060408601356001600160401b038082111561470457600080fd5b61471089838a016145c7565b9450606088013591508082111561472657600080fd5b61473289838a016145c7565b9350608088013591508082111561474857600080fd5b5061475588828901614695565b9150509295509295909350565b6000806040838503121561477557600080fd5b8235915060208301356147878161433c565b809150509250929050565b600080604083850312156147a557600080fd5b82356001600160401b03808211156147bc57600080fd5b818501915085601f8301126147d057600080fd5b813560206147dd826145a4565b6040516147ea8282614578565b83815260059390931b850182019282810191508984111561480a57600080fd5b948201945b838610156148315785356148228161433c565b8252948201949082019061480f565b9650508601359250508082111561484757600080fd5b50614854858286016145c7565b9150509250929050565b600081518084526020808501945080840160005b8381101561488e57815187529582019590820190600101614872565b509495945050505050565b602081526000612e17602083018461485e565b6000806000606084860312156148c157600080fd5b833592506020840135915060408401356148da8161433c565b809150509250925092565b60006101a082019050825182526020830151602083015260408301516040830152606083015161491d606084018263ffffffff169052565b506080830151614935608084018263ffffffff169052565b5060a083015161494d60a084018263ffffffff169052565b5060c083015161496260c084018260ff169052565b5060e083015161497d60e08401826001600160a01b03169052565b50610100838101519083015261012080840151908301526101408084015190830152610160808401516001600160a01b03908116918401919091526101809384015116929091019190915290565b600080602083850312156149de57600080fd5b82356001600160401b038111156149f457600080fd5b614a0085828601614434565b90969095509350505050565b600060208284031215614a1e57600080fd5b81356001600160401b03811115614a3457600080fd5b82016101a08185031215612e1757600080fd5b600060208284031215614a5957600080fd5b81356001600160401b03811115614a6f57600080fd5b820160808185031215612e1757600080fd5b803560ff811681146130da57600080fd5b600080600080600060a08688031215614aaa57600080fd5b85359450602080870135614abd8161433c565b945060408701356001600160401b0380821115614ad957600080fd5b818901915089601f830112614aed57600080fd5b8135614af8816145a4565b604051614b058282614578565b82815260059290921b840185019185810191508c831115614b2557600080fd5b938501935b82851015614b4a57614b3b85614a81565b82529385019390850190614b2a565b975050506060890135925080831115614b6257600080fd5b5050614b70888289016145c7565b95989497509295608001359392505050565b600060208284031215614b9457600080fd5b81356001600160401b03811115614baa57600080fd5b8201601f81018413614bbb57600080fd5b6135bb84823560208401614638565b8015158114610cc357600080fd5b60008060408385031215614beb57600080fd5b8235614bf68161433c565b9150602083013561478781614bca565b634e487b7160e01b600052602160045260246000fd5b60a0810160058710614c3057614c30614c06565b95815260ff948516602082015263ffffffff939093166040840152921660608201526001600160a01b0390911660809091015290565b60008060408385031215614c7957600080fd5b8235614c848161433c565b915060208301356147878161433c565b60008060408385031215614ca757600080fd5b82359150614cb760208401614a81565b90509250929050565b600080600080600060a08688031215614cd857600080fd5b8535614ce38161433c565b94506020860135614cf38161433c565b9350604086013592506060860135915060808601356001600160401b03811115614d1c57600080fd5b61475588828901614695565b600a8110614d3857614d38614c06565b9052565b602081016107ce8284614d28565b600181811c90821680614d5e57607f821691505b602082108114156128b957634e487b7160e01b600052602260045260246000fd5b81835281816020850137506000828201602090810191909152601f909101601f19169091010190565b6020815260006135bb602083018486614d7f565b60208082526010908201526f14185d5cd8589b194e881c185d5cd95960821b604082015260600190565b634e487b7160e01b600052603260045260246000fd5b634e487b7160e01b600052601160045260246000fd5b60008219821115614e2557614e25614dfc565b500190565b6000600019821415614e3e57614e3e614dfc565b5060010190565b6040808252810183905260006001600160fb1b03841115614e6557600080fd5b8360051b80866060850137808301905060608101600081526060848303016020850152614268818661485e565b600060ff821660ff811415614ea957614ea9614dfc565b60010192915050565b600082821015614ec457614ec4614dfc565b500390565b85815260a0810160028610614ee057614ee0614c06565b8560208301528460408301528360608301528260808301529695505050505050565b63ffffffff81168114610cc357600080fd5b600060208284031215614f2657600080fd5b8135612e1781614f02565b600060208284031215614f4357600080fd5b612e1782614a81565b600060ff821660ff84168060ff03821115614f6957614f69614dfc565b019392505050565b6000808335601e19843603018112614f8857600080fd5b8301803591506001600160401b03821115614fa257600080fd5b60200191503681900382131561447557600080fd5b600060208284031215614fc957600080fd5b8151612e1781614f02565b6080808252855190820181905260009060209060a0840190828901845b8281101561501057815160ff1684529284019290840190600101614ff1565b50505083810382850152615024818861485e565b9150508281036040840152615039818661485e565b90508281036060840152614268818561485e565b7f416363657373436f6e74726f6c3a206163636f756e74200000000000000000008152600083516150858160178501602088016143c9565b7001034b99036b4b9b9b4b733903937b6329607d1b60179184019182015283516150b68160288401602088016143c9565b01602801949350505050565b634e487b7160e01b600052600160045260246000fd5b60208082526028908201527f455243313135353a2069647320616e6420616d6f756e7473206c656e677468206040820152670dad2e6dac2e8c6d60c31b606082015260800190565b60208082526025908201527f455243313135353a207472616e7366657220746f20746865207a65726f206164604082015264647265737360d81b606082015260800190565b6020808252602a908201527f455243313135353a20696e73756666696369656e742062616c616e636520666f60408201526939103a3930b739b332b960b11b606082015260800190565b6040815260006151c2604083018561485e565b8281036020840152613926818561485e565b60008160001904831182151516156151ee576151ee614dfc565b500290565b634e487b7160e01b600052601260045260246000fd5b600082615218576152186151f3565b500490565b600063ffffffff8381169083168181101561523a5761523a614dfc565b039392505050565b600063ffffffff80841680615259576152596151f3565b92169190910492915050565b600063ffffffff80831681851680830382111561528457615284614dfc565b01949350505050565b60008235603e198336030181126152a357600080fd5b9190910192915050565b8035825260006020820135601e198336030181126152ca57600080fd5b820180356001600160401b038111156152e257600080fd5b8036038413156152f157600080fd5b60406020860152613926604086018260208501614d7f565b8d8152602081018d9052604081018c905263ffffffff8b811660608301528a81166080830152891660a082015260ff881660c08201526001600160a01b03871660e082015260006101a08761010084015286610120840152856101408401528061016084015261537b818401866152ad565b9150506153946101808301846001600160a01b03169052565b9e9d5050505050505050505050505050565b6020808252602b908201527f496e697469616c697a61626c653a20636f6e7472616374206973206e6f74206960408201526a6e697469616c697a696e6760a81b606082015260800190565b805160208083015191908110156128b95760001960209190910360031b1b16919050565b60008161542457615424614dfc565b506000190190565b60006020828403121561543e57600080fd5b8151612e1781614bca565b82815260408101612e176020830184614d28565b6001600160a01b0386811682528516602082015260a0604082018190526000906154899083018661485e565b828103606084015261549b818661485e565b905082810360808401526154af81856143f5565b98975050505050505050565b6000602082840312156154cd57600080fd5b8151612e178161437d565b600060033d11156154f15760046000803e5060005160e01c5b90565b600060443d10156155025790565b6040516003193d81016004833e81513d6001600160401b03816024840111818411171561553157505050505090565b82850191508151818111156155495750505050505090565b843d87010160208285010111156155635750505050505090565b61557260208286010187614578565b509095945050505050565b60208082526028908201527f455243313135353a204552433131353552656365697665722072656a656374656040820152676420746f6b656e7360c01b606082015260800190565b6001600160a01b03868116825285166020820152604081018490526060810183905260a060808201819052600090614268908301846143f5565b600082516152a38184602087016143c956fe4a39dc06d4c0dbc64b70af90fd698a233a518aa5d07e595d983b8c0526c8f7fba26469706673582212202cda2835fe28a9663915b1baaf398dd5c1a6adac6161cbbe219804faa30854ac64736f6c634300080c0033",
  "linkReferences": {},
  "deployedLinkReferences": {}
}