{
  "_format": "hh-sol-artifact-1",
  "contractName": "ClassicDoubleDiceApp",
  "sourceName": "contracts/app/classic/ClassicDoubleDiceApp.sol",
  "abi": [
    {
      "inputs": [
        {
          "internalType": "contract DoubleDiceProtocol",
          "name": "protocol",
          "type": "address"
        },
        {
          "internalType": "contract IERC20MetadataUpgradeable",
          "name": "bondUsdErc20Token",
          "type": "address"
        }
      ],
      "stateMutability": "nonpayable",
      "type": "constructor"
    },
    {
      "inputs": [],
      "name": "BetaOpenTooSmall",
      "type": "error"
    },
    {
      "inputs": [],
      "name": "ChallengeOutcomeIndexEqualToSet",
      "type": "error"
    },
    {
      "inputs": [],
      "name": "CreationQuotaExceeded",
      "type": "error"
    },
    {
      "inputs": [],
      "name": "EmptyCategory",
      "type": "error"
    },
    {
      "inputs": [],
      "name": "EmptyDescription",
      "type": "error"
    },
    {
      "inputs": [],
      "name": "EmptyDiscordChannelId",
      "type": "error"
    },
    {
      "inputs": [],
      "name": "EmptySubcategory",
      "type": "error"
    },
    {
      "inputs": [],
      "name": "EmptyTitle",
      "type": "error"
    },
    {
      "inputs": [],
      "name": "InvalidMetadataVersion",
      "type": "error"
    },
    {
      "inputs": [],
      "name": "InvalidOutcomesArrayLength",
      "type": "error"
    },
    {
      "inputs": [],
      "name": "InvalidTimeline",
      "type": "error"
    },
    {
      "inputs": [],
      "name": "OutcomeIndexOutOfRange",
      "type": "error"
    },
    {
      "inputs": [],
      "name": "TooEarly",
      "type": "error"
    },
    {
      "inputs": [],
      "name": "TooFewOpponents",
      "type": "error"
    },
    {
      "inputs": [],
      "name": "TooFewResultSources",
      "type": "error"
    },
    {
      "inputs": [],
      "name": "TooLate",
      "type": "error"
    },
    {
      "inputs": [],
      "name": "UnauthorizedMsgSender",
      "type": "error"
    },
    {
      "inputs": [],
      "name": "UnsupportedLegacyVf",
      "type": "error"
    },
    {
      "inputs": [
        {
          "internalType": "enum ResolutionState",
          "name": "actualState",
          "type": "uint8"
        }
      ],
      "name": "WrongResolutionState",
      "type": "error"
    },
    {
      "inputs": [
        {
          "internalType": "enum VirtualFloorState",
          "name": "actualState",
          "type": "uint8"
        }
      ],
      "name": "WrongVirtualFloorState",
      "type": "error"
    },
    {
      "anonymous": false,
      "inputs": [
        {
          "components": [
            {
              "internalType": "address",
              "name": "creator",
              "type": "address"
            },
            {
              "internalType": "int256",
              "name": "relativeAmount",
              "type": "int256"
            }
          ],
          "indexed": false,
          "internalType": "struct CreationQuotas.QuotaAdjustment[]",
          "name": "adjustments",
          "type": "tuple[]"
        }
      ],
      "name": "CreationQuotaAdjustments",
      "type": "event"
    },
    {
      "anonymous": false,
      "inputs": [
        {
          "indexed": false,
          "internalType": "address",
          "name": "account",
          "type": "address"
        }
      ],
      "name": "Paused",
      "type": "event"
    },
    {
      "anonymous": false,
      "inputs": [
        {
          "indexed": true,
          "internalType": "uint256",
          "name": "vfId",
          "type": "uint256"
        },
        {
          "indexed": false,
          "internalType": "address",
          "name": "operator",
          "type": "address"
        },
        {
          "indexed": false,
          "internalType": "enum ChallengeableCreatorOracle.ResultUpdateAction",
          "name": "action",
          "type": "uint8"
        },
        {
          "indexed": false,
          "internalType": "uint8",
          "name": "outcomeIndex",
          "type": "uint8"
        }
      ],
      "name": "ResultUpdate",
      "type": "event"
    },
    {
      "anonymous": false,
      "inputs": [
        {
          "indexed": true,
          "internalType": "bytes32",
          "name": "role",
          "type": "bytes32"
        },
        {
          "indexed": true,
          "internalType": "bytes32",
          "name": "previousAdminRole",
          "type": "bytes32"
        },
        {
          "indexed": true,
          "internalType": "bytes32",
          "name": "newAdminRole",
          "type": "bytes32"
        }
      ],
      "name": "RoleAdminChanged",
      "type": "event"
    },
    {
      "anonymous": false,
      "inputs": [
        {
          "indexed": true,
          "internalType": "bytes32",
          "name": "role",
          "type": "bytes32"
        },
        {
          "indexed": true,
          "internalType": "address",
          "name": "account",
          "type": "address"
        },
        {
          "indexed": true,
          "internalType": "address",
          "name": "sender",
          "type": "address"
        }
      ],
      "name": "RoleGranted",
      "type": "event"
    },
    {
      "anonymous": false,
      "inputs": [
        {
          "indexed": true,
          "internalType": "bytes32",
          "name": "role",
          "type": "bytes32"
        },
        {
          "indexed": true,
          "internalType": "address",
          "name": "account",
          "type": "address"
        },
        {
          "indexed": true,
          "internalType": "address",
          "name": "sender",
          "type": "address"
        }
      ],
      "name": "RoleRevoked",
      "type": "event"
    },
    {
      "anonymous": false,
      "inputs": [
        {
          "indexed": false,
          "internalType": "address",
          "name": "account",
          "type": "address"
        }
      ],
      "name": "Unpaused",
      "type": "event"
    },
    {
      "anonymous": false,
      "inputs": [
        {
          "indexed": true,
          "internalType": "uint256",
          "name": "vfId",
          "type": "uint256"
        },
        {
          "indexed": false,
          "internalType": "UFixed256x18",
          "name": "betaOpen_e18",
          "type": "uint256"
        },
        {
          "indexed": false,
          "internalType": "uint32",
          "name": "tOpen",
          "type": "uint32"
        },
        {
          "components": [
            {
              "internalType": "bytes32",
              "name": "version",
              "type": "bytes32"
            },
            {
              "internalType": "bytes",
              "name": "data",
              "type": "bytes"
            }
          ],
          "indexed": false,
          "internalType": "struct EncodedVirtualFloorMetadata",
          "name": "metadata",
          "type": "tuple"
        }
      ],
      "name": "VirtualFloorCreation",
      "type": "event"
    },
    {
      "inputs": [],
      "name": "CHALLENGE_BOND_USD_AMOUNT",
      "outputs": [
        {
          "internalType": "uint256",
          "name": "",
          "type": "uint256"
        }
      ],
      "stateMutability": "view",
      "type": "function"
    },
    {
      "inputs": [],
      "name": "CHALLENGE_WINDOW_DURATION",
      "outputs": [
        {
          "internalType": "uint256",
          "name": "",
          "type": "uint256"
        }
      ],
      "stateMutability": "view",
      "type": "function"
    },
    {
      "inputs": [],
      "name": "DEFAULT_ADMIN_ROLE",
      "outputs": [
        {
          "internalType": "bytes32",
          "name": "",
          "type": "bytes32"
        }
      ],
      "stateMutability": "view",
      "type": "function"
    },
    {
      "inputs": [],
      "name": "OPERATOR_ROLE",
      "outputs": [
        {
          "internalType": "bytes32",
          "name": "",
          "type": "bytes32"
        }
      ],
      "stateMutability": "view",
      "type": "function"
    },
    {
      "inputs": [],
      "name": "PROTOCOL",
      "outputs": [
        {
          "internalType": "contract DoubleDiceProtocol",
          "name": "",
          "type": "address"
        }
      ],
      "stateMutability": "view",
      "type": "function"
    },
    {
      "inputs": [],
      "name": "SET_WINDOW_DURATION",
      "outputs": [
        {
          "internalType": "uint256",
          "name": "",
          "type": "uint256"
        }
      ],
      "stateMutability": "view",
      "type": "function"
    },
    {
      "inputs": [
        {
          "internalType": "uint256",
          "name": "",
          "type": "uint256"
        }
      ],
      "name": "_resolutions",
      "outputs": [
        {
          "internalType": "enum ResolutionState",
          "name": "state",
          "type": "uint8"
        },
        {
          "internalType": "uint8",
          "name": "setOutcomeIndex",
          "type": "uint8"
        },
        {
          "internalType": "uint32",
          "name": "tResultChallengeMax",
          "type": "uint32"
        },
        {
          "internalType": "uint8",
          "name": "challengeOutcomeIndex",
          "type": "uint8"
        },
        {
          "internalType": "address",
          "name": "challenger",
          "type": "address"
        }
      ],
      "stateMutability": "view",
      "type": "function"
    },
    {
      "inputs": [
        {
          "components": [
            {
              "internalType": "address",
              "name": "creator",
              "type": "address"
            },
            {
              "internalType": "int256",
              "name": "relativeAmount",
              "type": "int256"
            }
          ],
          "internalType": "struct CreationQuotas.QuotaAdjustment[]",
          "name": "adjustments",
          "type": "tuple[]"
        }
      ],
      "name": "adjustCreationQuotas",
      "outputs": [],
      "stateMutability": "nonpayable",
      "type": "function"
    },
    {
      "inputs": [
        {
          "internalType": "uint256",
          "name": "vfId",
          "type": "uint256"
        },
        {
          "internalType": "uint8",
          "name": "",
          "type": "uint8"
        },
        {
          "internalType": "uint256",
          "name": "timestamp",
          "type": "uint256"
        }
      ],
      "name": "betaOf",
      "outputs": [
        {
          "internalType": "UFixed32x6",
          "name": "",
          "type": "uint32"
        }
      ],
      "stateMutability": "view",
      "type": "function"
    },
    {
      "inputs": [],
      "name": "bondAmount",
      "outputs": [
        {
          "internalType": "uint256",
          "name": "",
          "type": "uint256"
        }
      ],
      "stateMutability": "view",
      "type": "function"
    },
    {
      "inputs": [],
      "name": "bondUsdErc20Token",
      "outputs": [
        {
          "internalType": "contract IERC20MetadataUpgradeable",
          "name": "",
          "type": "address"
        }
      ],
      "stateMutability": "view",
      "type": "function"
    },
    {
      "inputs": [
        {
          "internalType": "uint256",
          "name": "vfId",
          "type": "uint256"
        },
        {
          "internalType": "uint8",
          "name": "challengeOutcomeIndex",
          "type": "uint8"
        }
      ],
      "name": "challengeSetResult",
      "outputs": [],
      "stateMutability": "nonpayable",
      "type": "function"
    },
    {
      "inputs": [
        {
          "internalType": "uint256",
          "name": "vfId",
          "type": "uint256"
        },
        {
          "internalType": "uint8[]",
          "name": "outcomeIndexes",
          "type": "uint8[]"
        },
        {
          "internalType": "uint256[]",
          "name": "amounts",
          "type": "uint256[]"
        },
        {
          "internalType": "uint256",
          "name": "optionalDeadline",
          "type": "uint256"
        }
      ],
      "name": "commitToVirtualFloor",
      "outputs": [],
      "stateMutability": "nonpayable",
      "type": "function"
    },
    {
      "inputs": [
        {
          "internalType": "uint256",
          "name": "vfId",
          "type": "uint256"
        }
      ],
      "name": "confirmUnchallengedResult",
      "outputs": [],
      "stateMutability": "nonpayable",
      "type": "function"
    },
    {
      "inputs": [
        {
          "components": [
            {
              "internalType": "uint256",
              "name": "vfId",
              "type": "uint256"
            },
            {
              "internalType": "UFixed256x18",
              "name": "betaOpen_e18",
              "type": "uint256"
            },
            {
              "internalType": "UFixed256x18",
              "name": "totalFeeRate_e18",
              "type": "uint256"
            },
            {
              "internalType": "uint32",
              "name": "tOpen",
              "type": "uint32"
            },
            {
              "internalType": "uint32",
              "name": "tClose",
              "type": "uint32"
            },
            {
              "internalType": "uint32",
              "name": "tResolve",
              "type": "uint32"
            },
            {
              "internalType": "uint8",
              "name": "nOutcomes",
              "type": "uint8"
            },
            {
              "internalType": "contract IERC20Upgradeable",
              "name": "paymentToken",
              "type": "address"
            },
            {
              "internalType": "uint256",
              "name": "bonusAmount",
              "type": "uint256"
            },
            {
              "internalType": "uint256",
              "name": "optionalMinCommitmentAmount",
              "type": "uint256"
            },
            {
              "internalType": "uint256",
              "name": "optionalMaxCommitmentAmount",
              "type": "uint256"
            },
            {
              "components": [
                {
                  "internalType": "bytes32",
                  "name": "version",
                  "type": "bytes32"
                },
                {
                  "internalType": "bytes",
                  "name": "data",
                  "type": "bytes"
                }
              ],
              "internalType": "struct EncodedVirtualFloorMetadata",
              "name": "metadata",
              "type": "tuple"
            },
            {
              "internalType": "address",
              "name": "creator",
              "type": "address"
            }
          ],
          "internalType": "struct VirtualFloorCreationParams",
          "name": "params",
          "type": "tuple"
        }
      ],
      "name": "createVirtualFloor",
      "outputs": [],
      "stateMutability": "nonpayable",
      "type": "function"
    },
    {
      "inputs": [
        {
          "internalType": "address",
          "name": "",
          "type": "address"
        }
      ],
      "name": "creationQuotas",
      "outputs": [
        {
          "internalType": "uint256",
          "name": "",
          "type": "uint256"
        }
      ],
      "stateMutability": "view",
      "type": "function"
    },
    {
      "inputs": [
        {
          "internalType": "uint256",
          "name": "vfId",
          "type": "uint256"
        },
        {
          "internalType": "uint8",
          "name": "finalOutcomeIndex",
          "type": "uint8"
        }
      ],
      "name": "finalizeChallenge",
      "outputs": [],
      "stateMutability": "nonpayable",
      "type": "function"
    },
    {
      "inputs": [
        {
          "internalType": "uint256",
          "name": "vfId",
          "type": "uint256"
        },
        {
          "internalType": "uint8",
          "name": "finalOutcomeIndex",
          "type": "uint8"
        }
      ],
      "name": "finalizeUnsetResult",
      "outputs": [],
      "stateMutability": "nonpayable",
      "type": "function"
    },
    {
      "inputs": [
        {
          "internalType": "bytes32",
          "name": "role",
          "type": "bytes32"
        }
      ],
      "name": "getRoleAdmin",
      "outputs": [
        {
          "internalType": "bytes32",
          "name": "",
          "type": "bytes32"
        }
      ],
      "stateMutability": "view",
      "type": "function"
    },
    {
      "inputs": [
        {
          "internalType": "bytes32",
          "name": "role",
          "type": "bytes32"
        },
        {
          "internalType": "address",
          "name": "account",
          "type": "address"
        }
      ],
      "name": "grantRole",
      "outputs": [],
      "stateMutability": "nonpayable",
      "type": "function"
    },
    {
      "inputs": [
        {
          "internalType": "bytes32",
          "name": "role",
          "type": "bytes32"
        },
        {
          "internalType": "address",
          "name": "account",
          "type": "address"
        }
      ],
      "name": "hasRole",
      "outputs": [
        {
          "internalType": "bool",
          "name": "",
          "type": "bool"
        }
      ],
      "stateMutability": "view",
      "type": "function"
    },
    {
      "inputs": [],
      "name": "initialize",
      "outputs": [],
      "stateMutability": "nonpayable",
      "type": "function"
    },
    {
      "inputs": [
        {
          "internalType": "uint256",
          "name": "vfId",
          "type": "uint256"
        }
      ],
      "name": "onVirtualFloorConclusion",
      "outputs": [],
      "stateMutability": "nonpayable",
      "type": "function"
    },
    {
      "inputs": [],
      "name": "paused",
      "outputs": [
        {
          "internalType": "bool",
          "name": "",
          "type": "bool"
        }
      ],
      "stateMutability": "view",
      "type": "function"
    },
    {
      "inputs": [
        {
          "internalType": "bytes32",
          "name": "role",
          "type": "bytes32"
        },
        {
          "internalType": "address",
          "name": "account",
          "type": "address"
        }
      ],
      "name": "renounceRole",
      "outputs": [],
      "stateMutability": "nonpayable",
      "type": "function"
    },
    {
      "inputs": [
        {
          "internalType": "uint256",
          "name": "vfId",
          "type": "uint256"
        }
      ],
      "name": "resolutions",
      "outputs": [
        {
          "components": [
            {
              "internalType": "enum ResolutionState",
              "name": "state",
              "type": "uint8"
            },
            {
              "internalType": "uint8",
              "name": "setOutcomeIndex",
              "type": "uint8"
            },
            {
              "internalType": "uint32",
              "name": "tResultChallengeMax",
              "type": "uint32"
            },
            {
              "internalType": "uint8",
              "name": "challengeOutcomeIndex",
              "type": "uint8"
            },
            {
              "internalType": "address",
              "name": "challenger",
              "type": "address"
            }
          ],
          "internalType": "struct Resolution",
          "name": "resolution",
          "type": "tuple"
        }
      ],
      "stateMutability": "view",
      "type": "function"
    },
    {
      "inputs": [
        {
          "internalType": "bytes32",
          "name": "role",
          "type": "bytes32"
        },
        {
          "internalType": "address",
          "name": "account",
          "type": "address"
        }
      ],
      "name": "revokeRole",
      "outputs": [],
      "stateMutability": "nonpayable",
      "type": "function"
    },
    {
      "inputs": [
        {
          "internalType": "uint256",
          "name": "vfId",
          "type": "uint256"
        },
        {
          "internalType": "uint8",
          "name": "setOutcomeIndex",
          "type": "uint8"
        }
      ],
      "name": "setResult",
      "outputs": [],
      "stateMutability": "nonpayable",
      "type": "function"
    },
    {
      "inputs": [
        {
          "internalType": "bytes4",
          "name": "interfaceId",
          "type": "bytes4"
        }
      ],
      "name": "supportsInterface",
      "outputs": [
        {
          "internalType": "bool",
          "name": "",
          "type": "bool"
        }
      ],
      "stateMutability": "view",
      "type": "function"
    }
  ],
  "bytecode": "0x60e06040523480156200001157600080fd5b5060405162003db138038062003db18339810160408190526200003491620001e4565b6001600160a01b03808316608052811660a08190526040805163313ce56760e01b8152905184928492909163313ce567916004808201926020929091908290030181865afa1580156200008b573d6000803e3d6000fd5b505050506040513d601f19601f82011682018060405250810190620000b1919062000223565b620000be90600a62000364565b620000cb90606462000375565b60c0525050600054610100900460ff16620000ed5760005460ff1615620000f7565b620000f76200019e565b6200015f5760405162461bcd60e51b815260206004820152602e60248201527f496e697469616c697a61626c653a20636f6e747261637420697320616c72656160448201526d191e481a5b9a5d1a585b1a5e995960921b606482015260840160405180910390fd5b600054610100900460ff1615801562000182576000805461ffff19166101011790555b801562000195576000805461ff00191690555b50505062000397565b6000620001b630620001bc60201b62001bf11760201c565b15905090565b6001600160a01b03163b151590565b6001600160a01b0381168114620001e157600080fd5b50565b60008060408385031215620001f857600080fd5b82516200020581620001cb565b60208401519092506200021881620001cb565b809150509250929050565b6000602082840312156200023657600080fd5b815160ff811681146200024857600080fd5b9392505050565b634e487b7160e01b600052601160045260246000fd5b600181815b80851115620002a65781600019048211156200028a576200028a6200024f565b808516156200029857918102915b93841c93908002906200026a565b509250929050565b600082620002bf575060016200035e565b81620002ce575060006200035e565b8160018114620002e75760028114620002f25762000312565b60019150506200035e565b60ff8411156200030657620003066200024f565b50506001821b6200035e565b5060208310610133831016604e8410600b841016171562000337575081810a6200035e565b62000343838362000265565b80600019048211156200035a576200035a6200024f565b0290505b92915050565b60006200024860ff841683620002ae565b60008160001904831182151516156200039257620003926200024f565b500290565b60805160a05160c05161391862000499600039600081816102f601528181610cb40152818161168901526122ba0152600081816104a201528181610c8801528181611666015261228501526000818161039f015281816105ca015281816106a8015281816107ee015281816108b001528181610b1801528181610dc601528181610ecb01528181611017015281816110e60152818161117601528181611368015281816113df0152818161147e0152818161151c015281816115a0015281816116df015281816118bc015281816119a6015281816119de01528181611ae101528181611c2301528181611f06015281816121be01526122f701526139186000f3fe608060405234801561001057600080fd5b50600436106101cf5760003560e01c80638129fc1c11610104578063b0fa9752116100a2578063d547741f11610071578063d547741f1461044d578063e92f306c14610460578063f5b541a614610488578063f96509b31461049d57600080fd5b8063b0fa975214610414578063b44e630214610427578063b907d7151461043a578063d118ca8e146102a157600080fd5b806391b9b827116100de57806391b9b8271461039a57806391d14854146103d9578063a217fddf146103ec578063a4b7f5ce146103f457600080fd5b80638129fc1c146103185780638174e7f8146103205780638fd43a581461033357600080fd5b806356ecee7311610171578063726d3d2a1161014b578063726d3d2a146102aa5780637b4b0d45146102cb578063808047e8146102de57806380f323a7146102f157600080fd5b806356ecee73146102835780635c975abb146102965780636299f683146102a157600080fd5b8063248a9ca3116101ad578063248a9ca3146102275780632f2ff15d1461024a57806336568abe1461025d57806356150a361461027057600080fd5b806301ffc9a7146101d457806311d631c2146101fc57806315eb79df14610211575b600080fd5b6101e76101e2366004612848565b6104c4565b60405190151581526020015b60405180910390f35b61020f61020a366004612872565b6104fb565b005b610219606481565b6040519081526020016101f3565b610219610235366004612872565b60009081526065602052604090206001015490565b61020f6102583660046128ab565b610709565b61020f61026b3660046128ab565b610734565b61020f61027e3660046128f5565b6107b2565b61020f6102913660046128f5565b610a93565b60975460ff166101e7565b610219610e1081565b6102196102b836600461291a565b61012e6020526000908152604090205481565b61020f6102d9366004612937565b610cde565b61020f6102ec366004612ab4565b610ebc565b6102197f000000000000000000000000000000000000000000000000000000000000000081565b61020f610f48565b61020f61032e366004612872565b611014565b610389610341366004612872565b60fb6020526000908152604090205460ff80821691610100810482169162010000820463ffffffff1691600160301b810490911690600160381b90046001600160a01b031685565b6040516101f3959493929190612bae565b6103c17f000000000000000000000000000000000000000000000000000000000000000081565b6040516001600160a01b0390911681526020016101f3565b6101e76103e73660046128ab565b61106f565b610219600081565b610407610402366004612872565b61109a565b6040516101f39190612bf1565b61020f6104223660046128f5565b6112d7565b61020f610435366004612c47565b611744565b61020f6104483660046128f5565b611841565b61020f61045b3660046128ab565b611a98565b61047361046e366004612cbb565b611abe565b60405163ffffffff90911681526020016101f3565b6102196000805160206138c383398151915281565b6103c17f000000000000000000000000000000000000000000000000000000000000000081565b60006001600160e01b03198216637965db0b60e01b14806104f557506301ffc9a760e01b6001600160e01b03198316145b92915050565b60975460ff16156105275760405162461bcd60e51b815260040161051e90612cf3565b60405180910390fd5b600061053282611c00565b90506001815460ff16600481111561054c5761054c612b88565b14610570578054604051636a01831360e01b815261051e9160ff1690600401612d1d565b805462010000900463ffffffff16421161059d5760405163085de62560e01b815260040160405180910390fd5b805460ff1916600490811782556040516340437e8560e11b81529081018390526000906001600160a01b037f00000000000000000000000000000000000000000000000000000000000000001690638086fd0a90602401602060405180830381865afa158015610611573d6000803e3d6000fd5b505050506040513d601f19601f820116820180604052508101906106359190612d3b565b9050826000805160206138a3833981519152338454604051610664929160029161010090910460ff1690612d58565b60405180910390a2815460405163636572db60e01b815260048101859052600161010090920460ff169190911b60248201526001600160a01b0382811660448301527f0000000000000000000000000000000000000000000000000000000000000000169063636572db90606401600060405180830381600087803b1580156106ec57600080fd5b505af1158015610700573d6000803e3d6000fd5b50505050505050565b6000828152606560205260409020600101546107258133611cc8565b61072f8383611d2c565b505050565b6001600160a01b03811633146107a45760405162461bcd60e51b815260206004820152602f60248201527f416363657373436f6e74726f6c3a2063616e206f6e6c792072656e6f756e636560448201526e103937b632b9903337b91039b2b63360891b606482015260840161051e565b6107ae8282611db2565b5050565b60975460ff16156107d55760405162461bcd60e51b815260040161051e90612cf3565b60405163f77369a760e01b8152600481018390526000907f00000000000000000000000000000000000000000000000000000000000000006001600160a01b03169063f77369a790602401602060405180830381865afa15801561083d573d6000803e3d6000fd5b505050506040513d601f19601f820116820180604052508101906108619190612d88565b9050600581600981111561087757610877612b88565b146108975780604051631dec7d6160e31b815260040161051e9190612da9565b6040516337ac1a2560e11b8152600481018490526000907f00000000000000000000000000000000000000000000000000000000000000006001600160a01b031690636f58344a906024016101a060405180830381865afa158015610900573d6000803e3d6000fd5b505050506040513d601f19601f820116820180604052508101906109249190612de5565b90508061016001516001600160a01b031661093c3390565b6001600160a01b0316146109635760405163b4ee3af160e01b815260040160405180910390fd5b600061096e85611c00565b90506000815460ff16600481111561098857610988612b88565b146109ac578054604051636a01831360e01b815261051e9160ff1690600401612d1d565b6000610e108360a0015163ffffffff166109c69190612ecf565b9050804211156109e95760405163ecdd1c2960e01b815260040160405180910390fd5b8260c0015160ff168560ff1610610a135760405163a697864360e01b815260040160405180910390fd5b610a27610a22610e1042612ecf565b611e19565b8254600165ffffffffff00199091166201000063ffffffff939093169290920261ff0019169190911761010060ff8816021760ff19168117835560405187916000805160206138a383398151915291610a839133918a90612d58565b60405180910390a2505050505050565b60975460ff1615610ab65760405162461bcd60e51b815260040161051e90612cf3565b6000610ac183611c00565b90506001815460ff166004811115610adb57610adb612b88565b14610aff578054604051636a01831360e01b815261051e9160ff1690600401612d1d565b6040516337ac1a2560e11b8152600481018490526000907f00000000000000000000000000000000000000000000000000000000000000006001600160a01b031690636f58344a906024016101a060405180830381865afa158015610b68573d6000803e3d6000fd5b505050506040513d601f19601f82011682018060405250810190610b8c9190612de5565b90508060c0015160ff168360ff1610610bb85760405163a697864360e01b815260040160405180910390fd5b815460ff848116610100909204161415610be55760405163a28fc2b960e01b815260040160405180910390fd5b815462010000900463ffffffff16421115610c135760405163ecdd1c2960e01b815260040160405180910390fd5b815465ffffffffff01600160d81b031916600160301b60ff85160266ffffffffffff01600160d81b0319161760ff1933600160381b81029190911691909117600217835560405185916000805160206138a383398151915291610c7b91906003908890612d58565b60405180910390a2610cd87f00000000000000000000000000000000000000000000000000000000000000006001600160a01b031633307f0000000000000000000000000000000000000000000000000000000000000000611e82565b50505050565b610cf06101a08201610180830161291a565b6001600160a01b0316336001600160a01b031614610d215760405163b4ee3af160e01b815260040160405180910390fd5b6020810135670de0b6b3a76400001115610d4e57604051631d7ef64960e11b815260040160405180910390fd5b610d5e60c0820160a08301612ef2565b63ffffffff16610d70603c600a612f0f565b610d8060a0840160808501612ef2565b63ffffffff16610d909190612ecf565b1115610daf57604051637063c71f60e11b815260040160405180910390fd5b604051637b4b0d4560e01b81526001600160a01b037f00000000000000000000000000000000000000000000000000000000000000001690637b4b0d4590610dfb908490600401612fc8565b600060405180830381600087803b158015610e1557600080fd5b505af1158015610e29573d6000803e3d6000fd5b50505050610e3681611eed565b610e5c610e476101608301836130dd565b610e5760e0840160c085016130fd565b611fd6565b80357fa050b0ac657c7dd151a2ea339714e746d1f83775309f92c756840789d6b0becc6020830135610e946080850160608601612ef2565b610ea26101608601866130dd565b604051610eb19392919061311a565b60405180910390a250565b60405163912217f360e01b81527f00000000000000000000000000000000000000000000000000000000000000006001600160a01b03169063912217f390610f109087903390889088908890600401613148565b600060405180830381600087803b158015610f2a57600080fd5b505af1158015610f3e573d6000803e3d6000fd5b5050505050505050565b600054610100900460ff16610f635760005460ff1615610f67565b303b155b610fca5760405162461bcd60e51b815260206004820152602e60248201527f496e697469616c697a61626c653a20636f6e747261637420697320616c72656160448201526d191e481a5b9a5d1a585b1a5e995960921b606482015260840161051e565b600054610100900460ff16158015610fec576000805461ffff19166101011790555b610ff4612139565b610fff600033611d2c565b8015611011576000805461ff00191690555b50565b337f00000000000000000000000000000000000000000000000000000000000000006001600160a01b03161461105d5760405163b4ee3af160e01b815260040160405180910390fd5b611066816121a6565b611011816122de565b60009182526065602090815260408084206001600160a01b0393909316845291905290205460ff1690565b6040805160a0810182526000808252602082018190529181018290526060810182905260808101919091526040516350007c8560e11b8152600481018390526000906001600160a01b037f0000000000000000000000000000000000000000000000000000000000000000169063a000f90a90602401602060405180830381865afa15801561112d573d6000803e3d6000fd5b505050506040513d601f19601f820116820180604052508101906111519190612d3b565b6001600160a01b0316141561124657604051637355848760e11b8152600481018390527f00000000000000000000000000000000000000000000000000000000000000006001600160a01b03169063e6ab090e9060240160a060405180830381865afa1580156111c5573d6000803e3d6000fd5b505050506040513d601f19601f820116820180604052508101906111e991906131ea565b6001600160a01b038116608087015260ff808316606088015263ffffffff84166040880152841660208701528585600481111561122857611228612b88565b600481111561123957611239612b88565b8152505050505050919050565b600082815260fb602052604090819020815160a081019092528054829060ff16600481111561127757611277612b88565b600481111561128857611288612b88565b8152905460ff61010082048116602084015263ffffffff620100008304166040840152600160301b82041660608301526001600160a01b03600160381b9091041660809091015290505b919050565b6000805160206138c38339815191526112f08133611cc8565b60006112fb84611c00565b90506002815460ff16600481111561131557611315612b88565b14611339578054604051636a01831360e01b815261051e9160ff1690600401612d1d565b8054600090819060ff868116610100909204161415611466576040516340437e8560e11b8152600481018790527f00000000000000000000000000000000000000000000000000000000000000006001600160a01b031690638086fd0a90602401602060405180830381865afa1580156113b7573d6000803e3d6000fd5b505050506040513d601f19601f820116820180604052508101906113db9190612d3b565b91507f00000000000000000000000000000000000000000000000000000000000000006001600160a01b0316632b7dd3736040518163ffffffff1660e01b8152600401602060405180830381865afa15801561143b573d6000803e3d6000fd5b505050506040513d601f19601f8201168201806040525081019061145f9190612d3b565b9050611623565b825460ff868116600160301b90920416141561151a577f00000000000000000000000000000000000000000000000000000000000000006001600160a01b0316632b7dd3736040518163ffffffff1660e01b8152600401602060405180830381865afa1580156114da573d6000803e3d6000fd5b505050506040513d601f19601f820116820180604052508101906114fe9190612d3b565b8354909250600160381b90046001600160a01b03169050611623565b7f00000000000000000000000000000000000000000000000000000000000000006001600160a01b0316632b7dd3736040518163ffffffff1660e01b8152600401602060405180830381865afa158015611578573d6000803e3d6000fd5b505050506040513d601f19601f8201168201806040525081019061159c9190612d3b565b91507f00000000000000000000000000000000000000000000000000000000000000006001600160a01b0316632b7dd3736040518163ffffffff1660e01b8152600401602060405180830381865afa1580156115fc573d6000803e3d6000fd5b505050506040513d601f19601f820116820180604052508101906116209190612d3b565b90505b825460ff19166004178355856000805160206138a38339815191523360048860405161165193929190612d58565b60405180910390a26116ad6001600160a01b037f000000000000000000000000000000000000000000000000000000000000000016827f00000000000000000000000000000000000000000000000000000000000000006123a2565b60405163636572db60e01b815260048101879052600160ff87161b60248201526001600160a01b0383811660448301527f0000000000000000000000000000000000000000000000000000000000000000169063636572db906064015b600060405180830381600087803b15801561172457600080fd5b505af1158015611738573d6000803e3d6000fd5b50505050505050505050565b6000805160206138c383398151915261175d8133611cc8565b60005b82811015611802573684848381811061177b5761177b613263565b90506040020190506117c3816020013561012e60008460000160208101906117a3919061291a565b6001600160a01b03168152602081019190915260400160002054906123d2565b61012e60006117d5602085018561291a565b6001600160a01b0316815260208101919091526040016000205550806117fa81613279565b915050611760565b507f632527f3537720b467284caf0532d34617bfbf633f529b6a939f56f5f829f2598383604051611834929190613294565b60405180910390a1505050565b6000805160206138c383398151915261185a8133611cc8565b600061186584611c00565b90506000815460ff16600481111561187f5761187f612b88565b146118a3578054604051636a01831360e01b815261051e9160ff1690600401612d1d565b6040516337ac1a2560e11b8152600481018590526000907f00000000000000000000000000000000000000000000000000000000000000006001600160a01b031690636f58344a906024016101a060405180830381865afa15801561190c573d6000803e3d6000fd5b505050506040513d601f19601f820116820180604052508101906119309190612de5565b90506000610e108260a0015163ffffffff1661194c9190612ecf565b905080421161196e5760405163085de62560e01b815260040160405180910390fd5b825460ff19166004178355856000805160206138a38339815191523360008860405161199c93929190612d58565b60405180910390a27f00000000000000000000000000000000000000000000000000000000000000006001600160a01b031663636572db878760ff166001901b7f00000000000000000000000000000000000000000000000000000000000000006001600160a01b0316632b7dd3736040518163ffffffff1660e01b8152600401602060405180830381865afa158015611a3a573d6000803e3d6000fd5b505050506040513d601f19601f82011682018060405250810190611a5e9190612d3b565b6040516001600160e01b031960e086901b168152600481019390935260248301919091526001600160a01b0316604482015260640161170a565b600082815260656020526040902060010154611ab48133611cc8565b61072f8383611db2565b6040516337ac1a2560e11b81526004810184905260009081906001600160a01b037f00000000000000000000000000000000000000000000000000000000000000001690636f58344a906024016101a060405180830381865afa158015611b29573d6000803e3d6000fd5b505050506040513d601f19601f82011682018060405250810190611b4d9190612de5565b90506000611b65826060015163ffffffff16856123ff565b8251909150600090611b7f90670de0b6b3a7640000612416565b90506000611bd8611bc985606001518660800151611b9d91906132ed565b63ffffffff16611bc386886080015163ffffffff16611bbc9190613312565b8690612422565b9061242e565b670de0b6b3a76400009061243a565b9050611be381612446565b9450505050505b9392505050565b6001600160a01b03163b151590565b6040516350007c8560e11b81526004810182905260009081906001600160a01b037f0000000000000000000000000000000000000000000000000000000000000000169063a000f90a90602401602060405180830381865afa158015611c6a573d6000803e3d6000fd5b505050506040513d601f19601f82011682018060405250810190611c8e9190612d3b565b6001600160a01b03161415611cb657604051633f746f1b60e11b815260040160405180910390fd5b50600090815260fb6020526040902090565b611cd2828261106f565b6107ae57611cea816001600160a01b0316601461245a565b611cf583602061245a565b604051602001611d06929190613355565b60408051601f198184030181529082905262461bcd60e51b825261051e916004016133ca565b611d36828261106f565b6107ae5760008281526065602090815260408083206001600160a01b03851684529091529020805460ff19166001179055611d6e3390565b6001600160a01b0316816001600160a01b0316837f2f8788117e7eff1d82e926ec794901d17c78024a50270940304540a733656f0d60405160405180910390a45050565b611dbc828261106f565b156107ae5760008281526065602090815260408083206001600160a01b0385168085529252808320805460ff1916905551339285917ff6391f5c32d9c69d2a47ea670b442974b53935d1edc7fd64eb21e047a839171b9190a45050565b600063ffffffff821115611e7e5760405162461bcd60e51b815260206004820152602660248201527f53616665436173743a2076616c756520646f65736e27742066697420696e203360448201526532206269747360d01b606482015260840161051e565b5090565b6040516001600160a01b0380851660248301528316604482015260648101829052610cd89085906323b872dd60e01b906084015b60408051601f198184030181529190526020810180516001600160e01b03166001600160e01b0319909316929092179091526125f5565b6040516340437e8560e11b8152813560048201526000907f00000000000000000000000000000000000000000000000000000000000000006001600160a01b031690638086fd0a90602401602060405180830381865afa158015611f55573d6000803e3d6000fd5b505050506040513d601f19601f82011682018060405250810190611f799190612d3b565b6001600160a01b038116600090815261012e6020526040902054909150611fb357604051630f1df2bd60e41b815260040160405180910390fd5b6001600160a01b0316600090815261012e60205260409020805460001901905550565b6001823514611ff8576040516379d0698360e11b815260040160405180910390fd5b600061200760208401846133fd565b8101906120149190613679565b90508160ff168160c00151511461203e57604051635f9375cd60e01b815260040160405180910390fd5b60018160a0015151101561206557604051632445fbb360e01b815260040160405180910390fd5b60018160e0015151101561208c57604051630c9d37d360e01b815260040160405180910390fd5b8051516120ac57604051631828cdd560e11b815260040160405180910390fd5b6020810151516120cf576040516361356c3160e11b815260040160405180910390fd5b6040810151516120f2576040516352ddcdef60e11b815260040160405180910390fd5b6060810151516121155760405163d937d5df60e01b815260040160405180910390fd5b6101008101515161072f5760405163f825791760e01b815260040160405180910390fd5b600054610100900460ff166121a45760405162461bcd60e51b815260206004820152602b60248201527f496e697469616c697a61626c653a20636f6e7472616374206973206e6f74206960448201526a6e697469616c697a696e6760a81b606482015260840161051e565b565b600960405163f77369a760e01b8152600481018390527f00000000000000000000000000000000000000000000000000000000000000006001600160a01b03169063f77369a790602401602060405180830381865afa15801561220d573d6000803e3d6000fd5b505050506040513d601f19601f820116820180604052508101906122319190612d88565b600981111561224257612242612b88565b141561101157600061225382611c00565b90506002815460ff16600481111561226d5761226d612b88565b14156107ae57805460ff19166003178082556107ae907f00000000000000000000000000000000000000000000000000000000000000006001600160a01b0390811691600160381b9004167f00000000000000000000000000000000000000000000000000000000000000006123a2565b6040516340437e8560e11b8152600481018290526000907f00000000000000000000000000000000000000000000000000000000000000006001600160a01b031690638086fd0a90602401602060405180830381865afa158015612346573d6000803e3d6000fd5b505050506040513d601f19601f8201168201806040525081019061236a9190612d3b565b6001600160a01b038116600090815261012e602052604081208054929350600192909190612399908490612ecf565b90915550505050565b6040516001600160a01b03831660248201526044810182905261072f90849063a9059cbb60e01b90606401611eb6565b60008082126123ec576123e58284612ecf565b90506104f5565b6123f58261381d565b6123e59084613312565b60008183101561240f5781611bea565b5090919050565b6000611bea8284613312565b6000611bea8284612f0f565b6000611bea828461383a565b6000611bea8284612ecf565b60006104f5610a2264e8d4a510008461383a565b60606000612469836002612f0f565b612474906002612ecf565b6001600160401b0381111561248b5761248b612972565b6040519080825280601f01601f1916602001820160405280156124b5576020820181803683370190505b509050600360fc1b816000815181106124d0576124d0613263565b60200101906001600160f81b031916908160001a905350600f60fb1b816001815181106124ff576124ff613263565b60200101906001600160f81b031916908160001a9053506000612523846002612f0f565b61252e906001612ecf565b90505b60018111156125a6576f181899199a1a9b1b9c1cb0b131b232b360811b85600f166010811061256257612562613263565b1a60f81b82828151811061257857612578613263565b60200101906001600160f81b031916908160001a90535060049490941c9361259f8161385c565b9050612531565b508315611bea5760405162461bcd60e51b815260206004820181905260248201527f537472696e67733a20686578206c656e67746820696e73756666696369656e74604482015260640161051e565b600061264a826040518060400160405280602081526020017f5361666545524332303a206c6f772d6c6576656c2063616c6c206661696c6564815250856001600160a01b03166126c79092919063ffffffff16565b80519091501561072f57808060200190518101906126689190613873565b61072f5760405162461bcd60e51b815260206004820152602a60248201527f5361666545524332303a204552433230206f7065726174696f6e20646964206e6044820152691bdd081cdd58d8d9595960b21b606482015260840161051e565b60606126d684846000856126de565b949350505050565b60608247101561273f5760405162461bcd60e51b815260206004820152602660248201527f416464726573733a20696e73756666696369656e742062616c616e636520666f6044820152651c8818d85b1b60d21b606482015260840161051e565b6001600160a01b0385163b6127965760405162461bcd60e51b815260206004820152601d60248201527f416464726573733a2063616c6c20746f206e6f6e2d636f6e7472616374000000604482015260640161051e565b600080866001600160a01b031685876040516127b29190613890565b60006040518083038185875af1925050503d80600081146127ef576040519150601f19603f3d011682016040523d82523d6000602084013e6127f4565b606091505b509150915061280482828661280f565b979650505050505050565b6060831561281e575081611bea565b82511561282e5782518084602001fd5b8160405162461bcd60e51b815260040161051e91906133ca565b60006020828403121561285a57600080fd5b81356001600160e01b031981168114611bea57600080fd5b60006020828403121561288457600080fd5b5035919050565b6001600160a01b038116811461101157600080fd5b80356112d28161288b565b600080604083850312156128be57600080fd5b8235915060208301356128d08161288b565b809150509250929050565b60ff8116811461101157600080fd5b80356112d2816128db565b6000806040838503121561290857600080fd5b8235915060208301356128d0816128db565b60006020828403121561292c57600080fd5b8135611bea8161288b565b60006020828403121561294957600080fd5b81356001600160401b0381111561295f57600080fd5b82016101a08185031215611bea57600080fd5b634e487b7160e01b600052604160045260246000fd5b6040516101a081016001600160401b03811182821017156129ab576129ab612972565b60405290565b604051602081016001600160401b03811182821017156129ab576129ab612972565b60405161014081016001600160401b03811182821017156129ab576129ab612972565b604051601f8201601f191681016001600160401b0381118282101715612a1e57612a1e612972565b604052919050565b60006001600160401b03821115612a3f57612a3f612972565b5060051b60200190565b600082601f830112612a5a57600080fd5b81356020612a6f612a6a83612a26565b6129f6565b82815260059290921b84018101918181019086841115612a8e57600080fd5b8286015b84811015612aa95780358352918301918301612a92565b509695505050505050565b60008060008060808587031215612aca57600080fd5b843593506020808601356001600160401b0380821115612ae957600080fd5b818801915088601f830112612afd57600080fd5b8135612b0b612a6a82612a26565b81815260059190911b8301840190848101908b831115612b2a57600080fd5b938501935b82851015612b51578435612b42816128db565b82529385019390850190612b2f565b975050506040880135925080831115612b6957600080fd5b5050612b7787828801612a49565b949793965093946060013593505050565b634e487b7160e01b600052602160045260246000fd5b6005811061101157611011612b88565b60a08101612bbb87612b9e565b95815260ff948516602082015263ffffffff939093166040840152921660608201526001600160a01b0390911660809091015290565b815160a0820190612c0181612b9e565b8083525060ff602084015116602083015263ffffffff604084015116604083015260ff606084015116606083015260018060a01b03608084015116608083015292915050565b60008060208385031215612c5a57600080fd5b82356001600160401b0380821115612c7157600080fd5b818501915085601f830112612c8557600080fd5b813581811115612c9457600080fd5b8660208260061b8501011115612ca957600080fd5b60209290920196919550909350505050565b600080600060608486031215612cd057600080fd5b833592506020840135612ce2816128db565b929592945050506040919091013590565b60208082526010908201526f14185d5cd8589b194e881c185d5cd95960821b604082015260600190565b60208101612d2a83612b9e565b91905290565b80516112d28161288b565b600060208284031215612d4d57600080fd5b8151611bea8161288b565b6001600160a01b038416815260608101612d7184612b9e565b83602083015260ff83166040830152949350505050565b600060208284031215612d9a57600080fd5b8151600a8110611bea57600080fd5b60208101600a8310612d2a57612d2a612b88565b63ffffffff8116811461101157600080fd5b80516112d281612dbd565b80516112d2816128db565b60006101a08284031215612df857600080fd5b612e00612988565b825181526020830151602082015260408301516040820152612e2460608401612dcf565b6060820152612e3560808401612dcf565b6080820152612e4660a08401612dcf565b60a0820152612e5760c08401612dda565b60c0820152612e6860e08401612d30565b60e0820152610100838101519082015261012080840151908201526101408084015190820152610160612e9c818501612d30565b90820152610180612eae848201612d30565b908201529392505050565b634e487b7160e01b600052601160045260246000fd5b60008219821115612ee257612ee2612eb9565b500190565b80356112d281612dbd565b600060208284031215612f0457600080fd5b8135611bea81612dbd565b6000816000190483118215151615612f2957612f29612eb9565b500290565b60008235603e19833603018112612f4457600080fd5b90910192915050565b8035825260006020820135601e19833603018112612f6a57600080fd5b820180356001600160401b03811115612f8257600080fd5b803603841315612f9157600080fd5b60406020860152806040860152806020830160608701376000606082870101526060601f19601f8301168601019250505092915050565b602081528135602082015260208201356040820152604082013560608201526000612ff560608401612ee7565b63ffffffff811660808401525061300e60808401612ee7565b63ffffffff811660a08401525061302760a08401612ee7565b63ffffffff811660c08401525061304060c084016128ea565b60ff811660e08401525061305660e084016128a0565b61010061306d818501836001600160a01b03169052565b6101209150808501358285015250610140818501358185015261016091508085013582850152506130a081850185612f2e565b90506101a061018081818601526130bb6101c0860184612f4d565b92506130c88187016128a0565b6001600160a01b031691909401529392505050565b60008235603e198336030181126130f357600080fd5b9190910192915050565b60006020828403121561310f57600080fd5b8135611bea816128db565b83815263ffffffff8316602082015260606040820152600061313f6060830184612f4d565b95945050505050565b8581526001600160a01b03851660208083019190915260a06040830181905285519083018190526000918681019160c0850190845b8181101561319c57845160ff168352938301939183019160010161317d565b50508481036060860152865180825290820192508187019060005b818110156131d3578251855293830193918301916001016131b7565b505050506080929092019290925295945050505050565b600080600080600060a0868803121561320257600080fd5b85516005811061321157600080fd5b6020870151909550613222816128db565b604087015190945061323381612dbd565b6060870151909350613244816128db565b60808701519092506132558161288b565b809150509295509295909350565b634e487b7160e01b600052603260045260246000fd5b600060001982141561328d5761328d612eb9565b5060010190565b6020808252818101839052600090604080840186845b878110156132e05781356132bd8161288b565b6001600160a01b03168352818501358584015291830191908301906001016132aa565b5090979650505050505050565b600063ffffffff8381169083168181101561330a5761330a612eb9565b039392505050565b60008282101561332457613324612eb9565b500390565b60005b8381101561334457818101518382015260200161332c565b83811115610cd85750506000910152565b7f416363657373436f6e74726f6c3a206163636f756e742000000000000000000081526000835161338d816017850160208801613329565b7001034b99036b4b9b9b4b733903937b6329607d1b60179184019182015283516133be816028840160208801613329565b01602801949350505050565b60208152600082518060208401526133e9816040850160208701613329565b601f01601f19169190910160400192915050565b6000808335601e1984360301811261341457600080fd5b8301803591506001600160401b0382111561342e57600080fd5b60200191503681900382131561344357600080fd5b9250929050565b600082601f83011261345b57600080fd5b81356001600160401b0381111561347457613474612972565b613487601f8201601f19166020016129f6565b81815284602083860101111561349c57600080fd5b816020850160208301376000918101602001919091529392505050565b801515811461101157600080fd5b80356112d2816134b9565b600082601f8301126134e357600080fd5b813560206134f3612a6a83612a26565b82815260059290921b8401810191818101908684111561351257600080fd5b8286015b84811015612aa95780356001600160401b03808211156135365760008081fd5b908801906040828b03601f19018113156135505760008081fd5b8051818101818110848211171561356957613569612972565b8252838801358381111561357d5760008081fd5b61358b8d8a8388010161344a565b8252509083013590828211156135a15760008081fd5b6135af8c898487010161344a565b818901528652505050918301918301613516565b600082601f8301126135d457600080fd5b813560206135e4612a6a83612a26565b82815260059290921b8401810191818101908684111561360357600080fd5b8286015b84811015612aa95780356001600160401b03808211156136275760008081fd5b90880190818a03601f190186131561363f5760008081fd5b6136476129b1565b86830135828111156136595760008081fd5b6136678c898387010161344a565b82525085525050918301918301613607565b60006020828403121561368b57600080fd5b81356001600160401b03808211156136a257600080fd5b9083019061014082860312156136b757600080fd5b6136bf6129d3565b8235828111156136ce57600080fd5b6136da8782860161344a565b8252506020830135828111156136ef57600080fd5b6136fb8782860161344a565b60208301525060408301358281111561371357600080fd5b61371f8782860161344a565b60408301525060608301358281111561373757600080fd5b6137438782860161344a565b606083015250613755608084016134c7565b608082015260a08301358281111561376c57600080fd5b613778878286016134d2565b60a08301525060c08301358281111561379057600080fd5b61379c878286016135c3565b60c08301525060e0830135828111156137b457600080fd5b6137c0878286016134d2565b60e08301525061010080840135838111156137da57600080fd5b6137e68882870161344a565b828401525050610120808401358381111561380057600080fd5b61380c8882870161344a565b918301919091525095945050505050565b6000600160ff1b82141561383357613833612eb9565b5060000390565b60008261385757634e487b7160e01b600052601260045260246000fd5b500490565b60008161386b5761386b612eb9565b506000190190565b60006020828403121561388557600080fd5b8151611bea816134b9565b600082516130f381846020870161332956fe639008f7ef6eec2e99836c369efd260e8a7f940c5ec2ec26a89d4eedb7ed559897667070c54ef182b0f5858b034beac1b6f3089aa2d3188bb1e8929f4fa9b929a2646970667358221220a50d24e25d3fc16814c4c17afef9b35b16a64a4a16b1ad62fd142e578da31e5264736f6c634300080c0033",
  "linkReferences": {},
  "deployedLinkReferences": {}
}