{
  "_format": "hh-sol-artifact-1",
  "contractName": "GraphHelper",
  "sourceName": "contracts/helper/GraphHelper.sol",
  "abi": [
    {
      "inputs": [
        {
          "internalType": "bytes",
          "name": "encoded",
          "type": "bytes"
        }
      ],
      "name": "decodeVirtualFloorMetadataV1",
      "outputs": [
        {
          "components": [
            {
              "internalType": "string",
              "name": "category",
              "type": "string"
            },
            {
              "internalType": "string",
              "name": "subcategory",
              "type": "string"
            },
            {
              "internalType": "string",
              "name": "title",
              "type": "string"
            },
            {
              "internalType": "string",
              "name": "description",
              "type": "string"
            },
            {
              "internalType": "bool",
              "name": "isListed",
              "type": "bool"
            },
            {
              "components": [
                {
                  "internalType": "string",
                  "name": "title",
                  "type": "string"
                },
                {
                  "internalType": "string",
                  "name": "image",
                  "type": "string"
                }
              ],
              "internalType": "struct VirtualFloorMetadataOpponent[]",
              "name": "opponents",
              "type": "tuple[]"
            },
            {
              "components": [
                {
                  "internalType": "string",
                  "name": "title",
                  "type": "string"
                }
              ],
              "internalType": "struct VirtualFloorMetadataOutcome[]",
              "name": "outcomes",
              "type": "tuple[]"
            },
            {
              "components": [
                {
                  "internalType": "string",
                  "name": "title",
                  "type": "string"
                },
                {
                  "internalType": "string",
                  "name": "url",
                  "type": "string"
                }
              ],
              "internalType": "struct VirtualFloorMetadataResultSource[]",
              "name": "resultSources",
              "type": "tuple[]"
            },
            {
              "internalType": "string",
              "name": "discordChannelId",
              "type": "string"
            },
            {
              "internalType": "bytes",
              "name": "extraData",
              "type": "bytes"
            }
          ],
          "internalType": "struct VirtualFloorMetadataV1",
          "name": "decoded",
          "type": "tuple"
        }
      ],
      "stateMutability": "pure",
      "type": "function"
    },
    {
      "inputs": [
        {
          "components": [
            {
              "internalType": "string",
              "name": "category",
              "type": "string"
            },
            {
              "internalType": "string",
              "name": "subcategory",
              "type": "string"
            },
            {
              "internalType": "string",
              "name": "title",
              "type": "string"
            },
            {
              "internalType": "string",
              "name": "description",
              "type": "string"
            },
            {
              "internalType": "bool",
              "name": "isListed",
              "type": "bool"
            },
            {
              "components": [
                {
                  "internalType": "string",
                  "name": "title",
                  "type": "string"
                },
                {
                  "internalType": "string",
                  "name": "image",
                  "type": "string"
                }
              ],
              "internalType": "struct VirtualFloorMetadataOpponent[]",
              "name": "opponents",
              "type": "tuple[]"
            },
            {
              "components": [
                {
                  "internalType": "string",
                  "name": "title",
                  "type": "string"
                }
              ],
              "internalType": "struct VirtualFloorMetadataOutcome[]",
              "name": "outcomes",
              "type": "tuple[]"
            },
            {
              "components": [
                {
                  "internalType": "string",
                  "name": "title",
                  "type": "string"
                },
                {
                  "internalType": "string",
                  "name": "url",
                  "type": "string"
                }
              ],
              "internalType": "struct VirtualFloorMetadataResultSource[]",
              "name": "resultSources",
              "type": "tuple[]"
            },
            {
              "internalType": "string",
              "name": "discordChannelId",
              "type": "string"
            },
            {
              "internalType": "bytes",
              "name": "extraData",
              "type": "bytes"
            }
          ],
          "internalType": "struct VirtualFloorMetadataV1",
          "name": "decoded",
          "type": "tuple"
        }
      ],
      "name": "encodeVirtualFloorMetadataV1",
      "outputs": [
        {
          "internalType": "bytes",
          "name": "encoded",
          "type": "bytes"
        }
      ],
      "stateMutability": "pure",
      "type": "function"
    }
  ],
  "bytecode": "0x608060405234801561001057600080fd5b50610c9f806100206000396000f3fe608060405234801561001057600080fd5b50600436106100365760003560e01c806392bedfc01461003b578063ea8fa58814610064575b600080fd5b61004e610049366004610118565b610084565b60405161005b91906101a1565b60405180910390f35b6100776100723660046101b4565b6100ad565b60405161005b919061034a565b6060816040516020016100979190610655565b6040516020818303038152906040529050919050565b6101056040518061014001604052806060815260200160608152602001606081526020016060815260200160001515815260200160608152602001606081526020016060815260200160608152602001606081525090565b61011182840184610ac4565b9392505050565b60006020828403121561012a57600080fd5b813567ffffffffffffffff81111561014157600080fd5b8201610140818503121561011157600080fd5b6000815180845260005b8181101561017a5760208185018101518683018201520161015e565b8181111561018c576000602083870101525b50601f01601f19169290920160200192915050565b6020815260006101116020830184610154565b600080602083850312156101c757600080fd5b823567ffffffffffffffff808211156101df57600080fd5b818501915085601f8301126101f357600080fd5b81358181111561020257600080fd5b86602082850101111561021457600080fd5b60209290920196919550909350505050565b600081516040845261023b6040850182610154565b9050602083015184820360208601526102548282610154565b95945050505050565b600081518084526020808501808196508360051b8101915082860160005b858110156102a5578284038952610293848351610226565b9885019893509084019060010161027b565b5091979650505050505050565b600081518084526020808501808196508360051b8101915082860160005b858110156102a55782840389528151518585526102ef86860182610154565b99860199945050908401906001016102d0565b600081518084526020808501808196508360051b8101915082860160005b858110156102a5578284038952610338848351610226565b98850198935090840190600101610320565b6020815260008251610140806020850152610369610160850183610154565b91506020850151601f19808685030160408701526103878483610154565b935060408701519150808685030160608701526103a48483610154565b935060608701519150808685030160808701526103c18483610154565b9350608087015191506103d860a087018315159052565b60a08701519150808685030160c08701526103f3848361025d565b935060c08701519150808685030160e087015261041084836102b2565b935060e0870151915061010081878603018188015261042f8584610302565b94508088015192505061012081878603018188015261044e8584610154565b90880151878203909201848801529350905061046a8382610154565b9695505050505050565b6000808335601e1984360301811261048b57600080fd5b830160208101925035905067ffffffffffffffff8111156104ab57600080fd5b8036038313156104ba57600080fd5b9250929050565b81835281816020850137506000828201602090810191909152601f909101601f19169091010190565b803580151581146104fa57600080fd5b919050565b6000808335601e1984360301811261051657600080fd5b830160208101925035905067ffffffffffffffff81111561053657600080fd5b8060051b36038313156104ba57600080fd5b81835260006020808501808196508560051b81019150846000805b888110156105da578385038a528235603e19893603018112610583578283fd5b880160406105918280610474565b8289526105a1838a0182846104c1565b925050506105b188830183610474565b9250878203898901526105c58284836104c1565b9c89019c975050509286019250600101610563565b509298975050505050505050565b81835260006020808501808196508560051b81019150846000805b888110156105da578385038a528235601e19893603018112610623578283fd5b880161062f8180610474565b915087875261064188880183836104c1565b9b88019b9650505091850191600101610603565b6020815260006106658384610474565b61014080602086015261067d610160860183856104c1565b925061068c6020870187610474565b9250601f19808786030160408801526106a68585846104c1565b94506106b56040890189610474565b94509150808786030160608801526106ce8585846104c1565b94506106dd6060890189610474565b94509150808786030160808801526106f68585846104c1565b9450610704608089016104ea565b80151560a0890152935061071b60a08901896104ff565b94509150808786030160c0880152610734858584610548565b945061074360c08901896104ff565b94509150808786030160e088015261075c8585846105e8565b945061076b60e08901896104ff565b94509150610100818887030181890152610786868685610548565b9550610794818a018a610474565b95509250506101208188870301818901526107b08686856104c1565b95506107be818a018a610474565b9550925050808786030183880152506107d88484836104c1565b979650505050505050565b634e487b7160e01b600052604160045260246000fd5b6040516020810167ffffffffffffffff8111828210171561081c5761081c6107e3565b60405290565b604051610140810167ffffffffffffffff8111828210171561081c5761081c6107e3565b604051601f8201601f1916810167ffffffffffffffff8111828210171561086f5761086f6107e3565b604052919050565b600082601f83011261088857600080fd5b813567ffffffffffffffff8111156108a2576108a26107e3565b6108b5601f8201601f1916602001610846565b8181528460208386010111156108ca57600080fd5b816020850160208301376000918101602001919091529392505050565b600067ffffffffffffffff821115610901576109016107e3565b5060051b60200190565b600082601f83011261091c57600080fd5b8135602061093161092c836108e7565b610846565b82815260059290921b8401810191818101908684111561095057600080fd5b8286015b84811015610a0257803567ffffffffffffffff808211156109755760008081fd5b908801906040828b03601f190181131561098f5760008081fd5b805181810181811084821117156109a8576109a86107e3565b825283880135838111156109bc5760008081fd5b6109ca8d8a83880101610877565b8252509083013590828211156109e05760008081fd5b6109ee8c8984870101610877565b818901528652505050918301918301610954565b509695505050505050565b600082601f830112610a1e57600080fd5b81356020610a2e61092c836108e7565b82815260059290921b84018101918181019086841115610a4d57600080fd5b8286015b84811015610a0257803567ffffffffffffffff80821115610a725760008081fd5b90880190818a03601f1901861315610a8a5760008081fd5b610a926107f9565b8683013582811115610aa45760008081fd5b610ab28c8983870101610877565b82525085525050918301918301610a51565b600060208284031215610ad657600080fd5b813567ffffffffffffffff80821115610aee57600080fd5b908301906101408286031215610b0357600080fd5b610b0b610822565b823582811115610b1a57600080fd5b610b2687828601610877565b825250602083013582811115610b3b57600080fd5b610b4787828601610877565b602083015250604083013582811115610b5f57600080fd5b610b6b87828601610877565b604083015250606083013582811115610b8357600080fd5b610b8f87828601610877565b606083015250610ba1608084016104ea565b608082015260a083013582811115610bb857600080fd5b610bc48782860161090b565b60a08301525060c083013582811115610bdc57600080fd5b610be887828601610a0d565b60c08301525060e083013582811115610c0057600080fd5b610c0c8782860161090b565b60e0830152506101008084013583811115610c2657600080fd5b610c3288828701610877565b8284015250506101208084013583811115610c4c57600080fd5b610c5888828701610877565b91830191909152509594505050505056fea264697066735822122092ea906c3296f989729cb3d19e1c12161c48d90eee11e0583bfbfb7198e832dd64736f6c634300080c0033",
  "linkReferences": {},
  "deployedLinkReferences": {}
}